{
  "_format": "hh-sol-artifact-1",
  "contractName": "StakeWise",
  "sourceName": "contracts/SafEth/derivatives/StakeWise.sol",
  "abi": [
    {
      "inputs": [],
      "stateMutability": "nonpayable",
      "type": "constructor"
    },
    {
      "anonymous": false,
      "inputs": [
        {
          "indexed": false,
          "internalType": "uint8",
          "name": "version",
          "type": "uint8"
        }
      ],
      "name": "Initialized",
      "type": "event"
    },
    {
      "anonymous": false,
      "inputs": [
        {
          "indexed": true,
          "internalType": "address",
          "name": "previousOwner",
          "type": "address"
        },
        {
          "indexed": true,
          "internalType": "address",
          "name": "newOwner",
          "type": "address"
        }
      ],
      "name": "OwnershipTransferred",
      "type": "event"
    },
    {
      "inputs": [],
      "name": "RETH2",
      "outputs": [
        {
          "internalType": "address",
          "name": "",
          "type": "address"
        }
      ],
      "stateMutability": "view",
      "type": "function"
    },
    {
      "inputs": [],
      "name": "RETH2_SETH2_POOL",
      "outputs": [
        {
          "internalType": "address",
          "name": "",
          "type": "address"
        }
      ],
      "stateMutability": "view",
      "type": "function"
    },
    {
      "inputs": [],
      "name": "SETH2",
      "outputs": [
        {
          "internalType": "address",
          "name": "",
          "type": "address"
        }
      ],
      "stateMutability": "view",
      "type": "function"
    },
    {
      "inputs": [],
      "name": "SETH2_WETH_POOL",
      "outputs": [
        {
          "internalType": "address",
          "name": "",
          "type": "address"
        }
      ],
      "stateMutability": "view",
      "type": "function"
    },
    {
      "inputs": [],
      "name": "STAKER",
      "outputs": [
        {
          "internalType": "address",
          "name": "",
          "type": "address"
        }
      ],
      "stateMutability": "view",
      "type": "function"
    },
    {
      "inputs": [],
      "name": "UNISWAP_ROUTER",
      "outputs": [
        {
          "internalType": "address",
          "name": "",
          "type": "address"
        }
      ],
      "stateMutability": "view",
      "type": "function"
    },
    {
      "inputs": [],
      "name": "WETH",
      "outputs": [
        {
          "internalType": "address",
          "name": "",
          "type": "address"
        }
      ],
      "stateMutability": "view",
      "type": "function"
    },
    {
      "inputs": [],
      "name": "balance",
      "outputs": [
        {
          "internalType": "uint256",
          "name": "",
          "type": "uint256"
        }
      ],
      "stateMutability": "view",
      "type": "function"
    },
    {
      "inputs": [],
      "name": "deposit",
      "outputs": [
        {
          "internalType": "uint256",
          "name": "",
          "type": "uint256"
        }
      ],
      "stateMutability": "payable",
      "type": "function"
    },
    {
      "inputs": [
        {
          "internalType": "uint256",
          "name": "_amount",
          "type": "uint256"
        }
      ],
      "name": "ethPerDerivative",
      "outputs": [
        {
          "internalType": "uint256",
          "name": "",
          "type": "uint256"
        }
      ],
      "stateMutability": "view",
      "type": "function"
    },
    {
      "inputs": [
        {
          "internalType": "address",
          "name": "_owner",
          "type": "address"
        }
      ],
      "name": "initialize",
      "outputs": [],
      "stateMutability": "nonpayable",
      "type": "function"
    },
    {
      "inputs": [],
      "name": "maxSlippage",
      "outputs": [
        {
          "internalType": "uint256",
          "name": "",
          "type": "uint256"
        }
      ],
      "stateMutability": "view",
      "type": "function"
    },
    {
      "inputs": [],
      "name": "name",
      "outputs": [
        {
          "internalType": "string",
          "name": "",
          "type": "string"
        }
      ],
      "stateMutability": "pure",
      "type": "function"
    },
    {
      "inputs": [],
      "name": "owner",
      "outputs": [
        {
          "internalType": "address",
          "name": "",
          "type": "address"
        }
      ],
      "stateMutability": "view",
      "type": "function"
    },
    {
      "inputs": [],
      "name": "renounceOwnership",
      "outputs": [],
      "stateMutability": "nonpayable",
      "type": "function"
    },
    {
      "inputs": [
        {
          "internalType": "uint256",
          "name": "_slippage",
          "type": "uint256"
        }
      ],
      "name": "setMaxSlippage",
      "outputs": [],
      "stateMutability": "nonpayable",
      "type": "function"
    },
    {
      "inputs": [
        {
          "internalType": "address",
          "name": "newOwner",
          "type": "address"
        }
      ],
      "name": "transferOwnership",
      "outputs": [],
      "stateMutability": "nonpayable",
      "type": "function"
    },
    {
      "inputs": [
        {
          "internalType": "uint256",
          "name": "_amount",
          "type": "uint256"
        }
      ],
      "name": "withdraw",
      "outputs": [],
      "stateMutability": "nonpayable",
      "type": "function"
    },
    {
      "stateMutability": "payable",
      "type": "receive"
    }
  ],
  "bytecode": "0x608060405234801561001057600080fd5b5061001961001e565b6100de565b600054610100900460ff161561008a5760405162461bcd60e51b815260206004820152602760248201527f496e697469616c697a61626c653a20636f6e747261637420697320696e697469604482015266616c697a696e6760c81b606482015260840160405180910390fd5b60005460ff90811610156100dc576000805460ff191660ff9081179091556040519081527f7f26b83ff96e1f2b6a682f133852f6798a09c465da95921460cefb38474024989060200160405180910390a15b565b6117c2806100ed6000396000f3fe60806040526004361061012d5760003560e01c80638c04166f116100a5578063b69ef8a811610074578063d0e30db011610059578063d0e30db01461039e578063d8264920146103a6578063f2fde38b146103ce57600080fd5b8063b69ef8a814610369578063c4d66de81461037e57600080fd5b80638c04166f146102d85780638da5cb5b146102ee578063ad5c464814610319578063b0df4cab1461034157600080fd5b806343f68a49116100fc5780634ddc8d44116100e15780634ddc8d441461027357806362a290211461029b578063715018a6146102c357600080fd5b806343f68a491461022b578063488b9d961461024b57600080fd5b806306fdde03146101395780632bd6de1d1461018e5780632e1a7d4d146101bc5780633900e49f146101de57600080fd5b3661013457005b600080fd5b34801561014557600080fd5b50604080518082018252600981527f5374616b655769736500000000000000000000000000000000000000000000006020820152905161018591906114f6565b60405180910390f35b34801561019a57600080fd5b506101ae6101a9366004611569565b6103ee565b604051908152602001610185565b3480156101c857600080fd5b506101dc6101d7366004611569565b610409565b005b3480156101ea57600080fd5b50610206737379e81228514a1d2a6cf7559203998e2059834681565b60405173ffffffffffffffffffffffffffffffffffffffff9091168152602001610185565b34801561023757600080fd5b506101dc610246366004611569565b61068f565b34801561025757600080fd5b5061020673a9ffb27d36901f87f1d0f20773f7072e38c5bfba81565b34801561027f57600080fd5b5061020673fe2e637202056d30016725477c5da089ab0a043a81565b3480156102a757600080fd5b506102067320bc832ca081b91433ff6c17f85701b6e92486c581565b3480156102cf57600080fd5b506101dc61069c565b3480156102e457600080fd5b506101ae60655481565b3480156102fa57600080fd5b5060335473ffffffffffffffffffffffffffffffffffffffff16610206565b34801561032557600080fd5b5061020673c02aaa39b223fe8d0a0e5c4f27ead9083c756cc281565b34801561034d57600080fd5b5061020673c874b064f465bdd6411d45734b56fac750cda29a81565b34801561037557600080fd5b506101ae6106b0565b34801561038a57600080fd5b506101dc6103993660046115a4565b6107e3565b6101ae610982565b3480156103b257600080fd5b506102067368b3465833fb72a70ecdf485e0e4c7bd8665fc4581565b3480156103da57600080fd5b506101dc6103e93660046115a4565b610c7a565b600080610402670de0b6b3a7640000610d31565b9392505050565b610411610d72565b610419610df3565b506040517f70a0823100000000000000000000000000000000000000000000000000000000815230600482015260009073fe2e637202056d30016725477c5da089ab0a043a906370a0823190602401602060405180830381865afa158015610485573d6000803e3d6000fd5b505050506040513d601f19601f820116820180604052508101906104a991906115c1565b821115610543576040517f70a0823100000000000000000000000000000000000000000000000000000000815230600482015273fe2e637202056d30016725477c5da089ab0a043a906370a0823190602401602060405180830381865afa158015610518573d6000803e3d6000fd5b505050506040513d601f19601f8201168201806040525081019061053c91906115c1565b9050610546565b50805b6000610551826110c7565b6040517f2e1a7d4d0000000000000000000000000000000000000000000000000000000081526004810182905290915073c02aaa39b223fe8d0a0e5c4f27ead9083c756cc290632e1a7d4d90602401600060405180830381600087803b1580156105ba57600080fd5b505af11580156105ce573d6000803e3d6000fd5b50506040516000925033915047908381818185875af1925050503d8060008114610614576040519150601f19603f3d011682016040523d82523d6000602084013e610619565b606091505b5050905080610689576040517f08c379a000000000000000000000000000000000000000000000000000000000815260206004820152601460248201527f4661696c656420746f2073656e6420457468657200000000000000000000000060448201526064015b60405180910390fd5b50505050565b610697610d72565b606555565b6106a4610d72565b6106ae600061138f565b565b6040517f70a08231000000000000000000000000000000000000000000000000000000008152306004820152600090610748907320bc832ca081b91433ff6c17f85701b6e92486c5906370a0823190602401602060405180830381865afa15801561071f573d6000803e3d6000fd5b505050506040513d601f19601f8201168201806040525081019061074391906115c1565b611406565b6040517f70a0823100000000000000000000000000000000000000000000000000000000815230600482015273fe2e637202056d30016725477c5da089ab0a043a906370a0823190602401602060405180830381865afa1580156107b0573d6000803e3d6000fd5b505050506040513d601f19601f820116820180604052508101906107d491906115c1565b6107de9190611609565b905090565b600054610100900460ff16158080156108035750600054600160ff909116105b8061081d5750303b15801561081d575060005460ff166001145b6108a9576040517f08c379a000000000000000000000000000000000000000000000000000000000815260206004820152602e60248201527f496e697469616c697a61626c653a20636f6e747261637420697320616c72656160448201527f647920696e697469616c697a65640000000000000000000000000000000000006064820152608401610680565b600080547fffffffffffffffffffffffffffffffffffffffffffffffffffffffffffffff00166001179055801561090757600080547fffffffffffffffffffffffffffffffffffffffffffffffffffffffffffff00ff166101001790555b6109108261138f565b662386f26fc10000606555801561097e57600080547fffffffffffffffffffffffffffffffffffffffffffffffffffffffffffff00ff169055604051600181527f7f26b83ff96e1f2b6a682f133852f6798a09c465da95921460cefb38474024989060200160405180910390a15b5050565b600061098c610d72565b73c874b064f465bdd6411d45734b56fac750cda29a73ffffffffffffffffffffffffffffffffffffffff1663da44e9c56040518163ffffffff1660e01b81526004016020604051808303816000875af11580156109ed573d6000803e3d6000fd5b505050506040513d601f19601f82011682018060405250810190610a1191906115c1565b341115610ad257604051600090339034908381818185875af1925050503d8060008114610a5a576040519150601f19603f3d011682016040523d82523d6000602084013e610a5f565b606091505b5050905080610aca576040517f08c379a000000000000000000000000000000000000000000000000000000000815260206004820152601460248201527f4661696c656420746f2073656e642045746865720000000000000000000000006044820152606401610680565b600091505090565b6040517f70a0823100000000000000000000000000000000000000000000000000000000815230600482015260009073fe2e637202056d30016725477c5da089ab0a043a906370a0823190602401602060405180830381865afa158015610b3d573d6000803e3d6000fd5b505050506040513d601f19601f82011682018060405250810190610b6191906115c1565b905073c874b064f465bdd6411d45734b56fac750cda29a73ffffffffffffffffffffffffffffffffffffffff16633a4b66f1346040518263ffffffff1660e01b81526004016000604051808303818588803b158015610bbf57600080fd5b505af1158015610bd3573d6000803e3d6000fd5b50506040517f70a082310000000000000000000000000000000000000000000000000000000081523060048201526000935073fe2e637202056d30016725477c5da089ab0a043a92506370a082319150602401602060405180830381865afa158015610c43573d6000803e3d6000fd5b505050506040513d601f19601f82011682018060405250810190610c6791906115c1565b9050610c738282611621565b9250505090565b610c82610d72565b73ffffffffffffffffffffffffffffffffffffffff8116610d25576040517f08c379a000000000000000000000000000000000000000000000000000000000815260206004820152602660248201527f4f776e61626c653a206e6577206f776e657220697320746865207a65726f206160448201527f64647265737300000000000000000000000000000000000000000000000000006064820152608401610680565b610d2e8161138f565b50565b6000610d50737379e81228514a1d2a6cf7559203998e20598346611421565b610d6283670de0b6b3a7640000611638565b610d6c9190611675565b92915050565b60335473ffffffffffffffffffffffffffffffffffffffff1633146106ae576040517f08c379a000000000000000000000000000000000000000000000000000000000815260206004820181905260248201527f4f776e61626c653a2063616c6c6572206973206e6f7420746865206f776e65726044820152606401610680565b6040517f70a0823100000000000000000000000000000000000000000000000000000000815230600482015260009081907320bc832ca081b91433ff6c17f85701b6e92486c5906370a0823190602401602060405180830381865afa158015610e60573d6000803e3d6000fd5b505050506040513d601f19601f82011682018060405250810190610e8491906115c1565b905080600003610e9657600091505090565b6000670de0b6b3a7640000606554670de0b6b3a7640000610eb79190611621565b610ec084611406565b610eca9190611638565b610ed49190611675565b6040517f095ea7b30000000000000000000000000000000000000000000000000000000081527368b3465833fb72a70ecdf485e0e4c7bd8665fc456004820152602481018490529091507320bc832ca081b91433ff6c17f85701b6e92486c59063095ea7b3906044016020604051808303816000875af1158015610f5c573d6000803e3d6000fd5b505050506040513d601f19601f82011682018060405250810190610f8091906116c5565b506040805160e0810182527320bc832ca081b91433ff6c17f85701b6e92486c5815273fe2e637202056d30016725477c5da089ab0a043a602082019081526101f482840190815230606084019081526080840187815260a08501878152600060c0870190815296517f04e45aaf000000000000000000000000000000000000000000000000000000008152865173ffffffffffffffffffffffffffffffffffffffff9081166004830152955186166024820152935162ffffff1660448501529151841660648401525160848301525160a482015292511660c4830152907368b3465833fb72a70ecdf485e0e4c7bd8665fc45906304e45aaf9060e4016020604051808303816000875af115801561109b573d6000803e3d6000fd5b505050506040513d601f19601f820116820180604052508101906110bf91906115c1565b935050505090565b6040517f70a0823100000000000000000000000000000000000000000000000000000000815230600482015260009073fe2e637202056d30016725477c5da089ab0a043a9063095ea7b3907368b3465833fb72a70ecdf485e0e4c7bd8665fc459083906370a0823190602401602060405180830381865afa158015611150573d6000803e3d6000fd5b505050506040513d601f19601f8201168201806040525081019061117491906115c1565b6040517fffffffff0000000000000000000000000000000000000000000000000000000060e085901b16815273ffffffffffffffffffffffffffffffffffffffff909216600483015260248201526044016020604051808303816000875af11580156111e4573d6000803e3d6000fd5b505050506040513d601f19601f8201168201806040525081019061120891906116c5565b506000670de0b6b3a7640000606554670de0b6b3a764000061122a9190611621565b61123385610d31565b61123d9190611638565b6112479190611675565b6040805160e08101825273fe2e637202056d30016725477c5da089ab0a043a815273c02aaa39b223fe8d0a0e5c4f27ead9083c756cc2602082019081526101f482840190815230606084019081526080840189815260a08501878152600060c0870190815296517f04e45aaf000000000000000000000000000000000000000000000000000000008152865173ffffffffffffffffffffffffffffffffffffffff9081166004830152955186166024820152935162ffffff1660448501529151841660648401525160848301525160a482015292511660c48301529192507368b3465833fb72a70ecdf485e0e4c7bd8665fc45906304e45aaf9060e4016020604051808303816000875af1158015611363573d6000803e3d6000fd5b505050506040513d601f19601f8201168201806040525081019061138791906115c1565b949350505050565b6033805473ffffffffffffffffffffffffffffffffffffffff8381167fffffffffffffffffffffffff0000000000000000000000000000000000000000831681179093556040519116919082907f8be0079c531659141344cd1fd0a4f28419497f9722a3daafe3b4186f6b6457e090600090a35050565b6000610d5073a9ffb27d36901f87f1d0f20773f7072e38c5bfba5b60008082905060008173ffffffffffffffffffffffffffffffffffffffff16633850c7bd6040518163ffffffff1660e01b815260040160e060405180830381865afa158015611474573d6000803e3d6000fd5b505050506040513d601f19601f8201168201806040525081019061149891906116f2565b505050505050905060c08173ffffffffffffffffffffffffffffffffffffffff168273ffffffffffffffffffffffffffffffffffffffff166114da9190611638565b6114ec90670de0b6b3a7640000611638565b901c949350505050565b600060208083528351808285015260005b8181101561152357858101830151858201604001528201611507565b81811115611535576000604083870101525b50601f017fffffffffffffffffffffffffffffffffffffffffffffffffffffffffffffffe016929092016040019392505050565b60006020828403121561157b57600080fd5b5035919050565b73ffffffffffffffffffffffffffffffffffffffff81168114610d2e57600080fd5b6000602082840312156115b657600080fd5b813561040281611582565b6000602082840312156115d357600080fd5b5051919050565b7f4e487b7100000000000000000000000000000000000000000000000000000000600052601160045260246000fd5b6000821982111561161c5761161c6115da565b500190565b600082821015611633576116336115da565b500390565b6000817fffffffffffffffffffffffffffffffffffffffffffffffffffffffffffffffff0483118215151615611670576116706115da565b500290565b6000826116ab577f4e487b7100000000000000000000000000000000000000000000000000000000600052601260045260246000fd5b500490565b805180151581146116c057600080fd5b919050565b6000602082840312156116d757600080fd5b610402826116b0565b805161ffff811681146116c057600080fd5b600080600080600080600060e0888a03121561170d57600080fd5b875161171881611582565b8097505060208801518060020b811461173057600080fd5b955061173e604089016116e0565b945061174c606089016116e0565b935061175a608089016116e0565b925060a088015160ff8116811461177057600080fd5b915061177e60c089016116b0565b90509295989194975092955056fea2646970667358221220e32b0d01a3dbb630c246787096355a881434e416637355aa9a5ac537e9e8c12e64736f6c634300080d0033",
  "linkReferences": {},
  "deployedLinkReferences": {}
}