{
  "_format": "hh-sol-artifact-1",
  "contractName": "Ankr",
  "sourceName": "contracts/SafEth/derivatives/Ankr.sol",
  "abi": [
    {
      "inputs": [],
      "stateMutability": "nonpayable",
      "type": "constructor"
    },
    {
      "anonymous": false,
      "inputs": [
        {
          "indexed": false,
          "internalType": "uint8",
          "name": "version",
          "type": "uint8"
        }
      ],
      "name": "Initialized",
      "type": "event"
    },
    {
      "anonymous": false,
      "inputs": [
        {
          "indexed": true,
          "internalType": "address",
          "name": "previousOwner",
          "type": "address"
        },
        {
          "indexed": true,
          "internalType": "address",
          "name": "newOwner",
          "type": "address"
        }
      ],
      "name": "OwnershipTransferred",
      "type": "event"
    },
    {
      "inputs": [],
      "name": "ANKR_ETH_ADDRESS",
      "outputs": [
        {
          "internalType": "address",
          "name": "",
          "type": "address"
        }
      ],
      "stateMutability": "view",
      "type": "function"
    },
    {
      "inputs": [],
      "name": "ANKR_ETH_POOL",
      "outputs": [
        {
          "internalType": "address",
          "name": "",
          "type": "address"
        }
      ],
      "stateMutability": "view",
      "type": "function"
    },
    {
      "inputs": [],
      "name": "ANKR_STAKER_ADDRESS",
      "outputs": [
        {
          "internalType": "address",
          "name": "",
          "type": "address"
        }
      ],
      "stateMutability": "view",
      "type": "function"
    },
    {
      "inputs": [],
      "name": "balance",
      "outputs": [
        {
          "internalType": "uint256",
          "name": "",
          "type": "uint256"
        }
      ],
      "stateMutability": "view",
      "type": "function"
    },
    {
      "inputs": [],
      "name": "deposit",
      "outputs": [
        {
          "internalType": "uint256",
          "name": "",
          "type": "uint256"
        }
      ],
      "stateMutability": "payable",
      "type": "function"
    },
    {
      "inputs": [
        {
          "internalType": "uint256",
          "name": "_amount",
          "type": "uint256"
        }
      ],
      "name": "ethPerDerivative",
      "outputs": [
        {
          "internalType": "uint256",
          "name": "",
          "type": "uint256"
        }
      ],
      "stateMutability": "view",
      "type": "function"
    },
    {
      "inputs": [
        {
          "internalType": "address",
          "name": "_owner",
          "type": "address"
        }
      ],
      "name": "initialize",
      "outputs": [],
      "stateMutability": "nonpayable",
      "type": "function"
    },
    {
      "inputs": [],
      "name": "maxSlippage",
      "outputs": [
        {
          "internalType": "uint256",
          "name": "",
          "type": "uint256"
        }
      ],
      "stateMutability": "view",
      "type": "function"
    },
    {
      "inputs": [],
      "name": "name",
      "outputs": [
        {
          "internalType": "string",
          "name": "",
          "type": "string"
        }
      ],
      "stateMutability": "pure",
      "type": "function"
    },
    {
      "inputs": [],
      "name": "owner",
      "outputs": [
        {
          "internalType": "address",
          "name": "",
          "type": "address"
        }
      ],
      "stateMutability": "view",
      "type": "function"
    },
    {
      "inputs": [],
      "name": "renounceOwnership",
      "outputs": [],
      "stateMutability": "nonpayable",
      "type": "function"
    },
    {
      "inputs": [
        {
          "internalType": "uint256",
          "name": "_slippage",
          "type": "uint256"
        }
      ],
      "name": "setMaxSlippage",
      "outputs": [],
      "stateMutability": "nonpayable",
      "type": "function"
    },
    {
      "inputs": [
        {
          "internalType": "address",
          "name": "newOwner",
          "type": "address"
        }
      ],
      "name": "transferOwnership",
      "outputs": [],
      "stateMutability": "nonpayable",
      "type": "function"
    },
    {
      "inputs": [
        {
          "internalType": "uint256",
          "name": "_amount",
          "type": "uint256"
        }
      ],
      "name": "withdraw",
      "outputs": [],
      "stateMutability": "nonpayable",
      "type": "function"
    },
    {
      "stateMutability": "payable",
      "type": "receive"
    }
  ],
  "bytecode": "0x608060405234801561001057600080fd5b5061001961001e565b6100de565b600054610100900460ff161561008a5760405162461bcd60e51b815260206004820152602760248201527f496e697469616c697a61626c653a20636f6e747261637420697320696e697469604482015266616c697a696e6760c81b606482015260840160405180910390fd5b60005460ff90811610156100dc576000805460ff191660ff9081179091556040519081527f7f26b83ff96e1f2b6a682f133852f6798a09c465da95921460cefb38474024989060200160405180910390a15b565b610ecf806100ed6000396000f3fe6080604052600436106100e15760003560e01c80638c04166f1161007f578063b69ef8a811610059578063b69ef8a8146102a5578063c4d66de8146102ba578063d0e30db0146102da578063f2fde38b146102e257600080fd5b80638c04166f1461023c5780638da5cb5b14610252578063a6b623481461027d57600080fd5b80632e1a7d4d116100bb5780632e1a7d4d146101bd57806343f68a49146101df578063715018a6146101ff5780638a9e8bd81461021457600080fd5b806306fdde03146100ed578063085cd3e2146101425780632bd6de1d1461018f57600080fd5b366100e857005b600080fd5b3480156100f957600080fd5b50604080518082018252600781527f416e6b7245746800000000000000000000000000000000000000000000000000602082015290516101399190610cd7565b60405180910390f35b34801561014e57600080fd5b5061016a73a96a65c051bf88b4095ee1f2451c2a9d43f53ae281565b60405173ffffffffffffffffffffffffffffffffffffffff9091168152602001610139565b34801561019b57600080fd5b506101af6101aa366004610d4a565b610302565b604051908152602001610139565b3480156101c957600080fd5b506101dd6101d8366004610d4a565b61039f565b005b3480156101eb57600080fd5b506101dd6101fa366004610d4a565b610722565b34801561020b57600080fd5b506101dd61072f565b34801561022057600080fd5b5061016a73e95a203b1a91a908f9b9ce46459d101078c2c3cb81565b34801561024857600080fd5b506101af60655481565b34801561025e57600080fd5b5060335473ffffffffffffffffffffffffffffffffffffffff1661016a565b34801561028957600080fd5b5061016a7384db6ee82b7cf3b47e8f19270abde5718b93667081565b3480156102b157600080fd5b506101af610743565b3480156102c657600080fd5b506101dd6102d5366004610d63565b6107d7565b6101af610976565b3480156102ee57600080fd5b506101dd6102fd366004610d63565b610b28565b6040517f6c58d43d000000000000000000000000000000000000000000000000000000008152670de0b6b3a7640000600482015260009073e95a203b1a91a908f9b9ce46459d101078c2c3cb90636c58d43d90602401602060405180830381865afa158015610375573d6000803e3d6000fd5b505050506040513d601f19601f820116820180604052508101906103999190610da0565b92915050565b6103a7610bdf565b6040517f70a0823100000000000000000000000000000000000000000000000000000000815230600482015260009073e95a203b1a91a908f9b9ce46459d101078c2c3cb906370a0823190602401602060405180830381865afa158015610412573d6000803e3d6000fd5b505050506040513d601f19601f820116820180604052508101906104369190610da0565b6040517f095ea7b300000000000000000000000000000000000000000000000000000000815273a96a65c051bf88b4095ee1f2451c2a9d43f53ae260048201526024810182905290915073e95a203b1a91a908f9b9ce46459d101078c2c3cb9063095ea7b3906044016020604051808303816000875af11580156104be573d6000803e3d6000fd5b505050506040513d601f19601f820116820180604052508101906104e29190610db9565b50600073a96a65c051bf88b4095ee1f2451c2a9d43f53ae273ffffffffffffffffffffffffffffffffffffffff1663bb7b8b806040518163ffffffff1660e01b8152600401602060405180830381865afa158015610544573d6000803e3d6000fd5b505050506040513d601f19601f820116820180604052508101906105689190610da0565b90506000670de0b6b3a7640000606554670de0b6b3a764000061058b9190610e0a565b670de0b6b3a764000061059e8786610e21565b6105a89190610e5e565b6105b29190610e21565b6105bc9190610e5e565b6040517f3df021240000000000000000000000000000000000000000000000000000000081526001600482015260006024820152604481018590526064810182905290915073a96a65c051bf88b4095ee1f2451c2a9d43f53ae290633df02124906084016020604051808303816000875af115801561063f573d6000803e3d6000fd5b505050506040513d601f19601f820116820180604052508101906106639190610da0565b50604051600090339047908381818185875af1925050503d80600081146106a6576040519150601f19603f3d011682016040523d82523d6000602084013e6106ab565b606091505b505090508061071b576040517f08c379a000000000000000000000000000000000000000000000000000000000815260206004820152601460248201527f4661696c656420746f2073656e6420457468657200000000000000000000000060448201526064015b60405180910390fd5b5050505050565b61072a610bdf565b606555565b610737610bdf565b6107416000610c60565b565b6040517f70a0823100000000000000000000000000000000000000000000000000000000815230600482015260009073e95a203b1a91a908f9b9ce46459d101078c2c3cb906370a0823190602401602060405180830381865afa1580156107ae573d6000803e3d6000fd5b505050506040513d601f19601f820116820180604052508101906107d29190610da0565b905090565b600054610100900460ff16158080156107f75750600054600160ff909116105b806108115750303b158015610811575060005460ff166001145b61089d576040517f08c379a000000000000000000000000000000000000000000000000000000000815260206004820152602e60248201527f496e697469616c697a61626c653a20636f6e747261637420697320616c72656160448201527f647920696e697469616c697a65640000000000000000000000000000000000006064820152608401610712565b600080547fffffffffffffffffffffffffffffffffffffffffffffffffffffffffffffff0016600117905580156108fb57600080547fffffffffffffffffffffffffffffffffffffffffffffffffffffffffffff00ff166101001790555b61090482610c60565b662386f26fc10000606555801561097257600080547fffffffffffffffffffffffffffffffffffffffffffffffffffffffffffff00ff169055604051600181527f7f26b83ff96e1f2b6a682f133852f6798a09c465da95921460cefb38474024989060200160405180910390a15b5050565b6000610980610bdf565b6040517f70a0823100000000000000000000000000000000000000000000000000000000815230600482015260009073e95a203b1a91a908f9b9ce46459d101078c2c3cb906370a0823190602401602060405180830381865afa1580156109eb573d6000803e3d6000fd5b505050506040513d601f19601f82011682018060405250810190610a0f9190610da0565b90507384db6ee82b7cf3b47e8f19270abde5718b93667073ffffffffffffffffffffffffffffffffffffffff16639fa65c56346040518263ffffffff1660e01b81526004016000604051808303818588803b158015610a6d57600080fd5b505af1158015610a81573d6000803e3d6000fd5b50506040517f70a082310000000000000000000000000000000000000000000000000000000081523060048201526000935073e95a203b1a91a908f9b9ce46459d101078c2c3cb92506370a082319150602401602060405180830381865afa158015610af1573d6000803e3d6000fd5b505050506040513d601f19601f82011682018060405250810190610b159190610da0565b9050610b218282610e0a565b9250505090565b610b30610bdf565b73ffffffffffffffffffffffffffffffffffffffff8116610bd3576040517f08c379a000000000000000000000000000000000000000000000000000000000815260206004820152602660248201527f4f776e61626c653a206e6577206f776e657220697320746865207a65726f206160448201527f64647265737300000000000000000000000000000000000000000000000000006064820152608401610712565b610bdc81610c60565b50565b60335473ffffffffffffffffffffffffffffffffffffffff163314610741576040517f08c379a000000000000000000000000000000000000000000000000000000000815260206004820181905260248201527f4f776e61626c653a2063616c6c6572206973206e6f7420746865206f776e65726044820152606401610712565b6033805473ffffffffffffffffffffffffffffffffffffffff8381167fffffffffffffffffffffffff0000000000000000000000000000000000000000831681179093556040519116919082907f8be0079c531659141344cd1fd0a4f28419497f9722a3daafe3b4186f6b6457e090600090a35050565b600060208083528351808285015260005b81811015610d0457858101830151858201604001528201610ce8565b81811115610d16576000604083870101525b50601f017fffffffffffffffffffffffffffffffffffffffffffffffffffffffffffffffe016929092016040019392505050565b600060208284031215610d5c57600080fd5b5035919050565b600060208284031215610d7557600080fd5b813573ffffffffffffffffffffffffffffffffffffffff81168114610d9957600080fd5b9392505050565b600060208284031215610db257600080fd5b5051919050565b600060208284031215610dcb57600080fd5b81518015158114610d9957600080fd5b7f4e487b7100000000000000000000000000000000000000000000000000000000600052601160045260246000fd5b600082821015610e1c57610e1c610ddb565b500390565b6000817fffffffffffffffffffffffffffffffffffffffffffffffffffffffffffffffff0483118215151615610e5957610e59610ddb565b500290565b600082610e94577f4e487b7100000000000000000000000000000000000000000000000000000000600052601260045260246000fd5b50049056fea264697066735822122073da5e2cbcc472aed4edebb6ddaf75cf738a6cc668d0f7200d03d53d985406b264736f6c634300080d0033",
  "linkReferences": {},
  "deployedLinkReferences": {}
}