{
  "_format": "hh-sol-artifact-1",
  "contractName": "WstEth",
  "sourceName": "contracts/SafEth/derivatives/WstEth.sol",
  "abi": [
    {
      "inputs": [],
      "stateMutability": "nonpayable",
      "type": "constructor"
    },
    {
      "anonymous": false,
      "inputs": [
        {
          "indexed": false,
          "internalType": "uint8",
          "name": "version",
          "type": "uint8"
        }
      ],
      "name": "Initialized",
      "type": "event"
    },
    {
      "anonymous": false,
      "inputs": [
        {
          "indexed": true,
          "internalType": "address",
          "name": "previousOwner",
          "type": "address"
        },
        {
          "indexed": true,
          "internalType": "address",
          "name": "newOwner",
          "type": "address"
        }
      ],
      "name": "OwnershipTransferred",
      "type": "event"
    },
    {
      "inputs": [],
      "name": "LIDO_CRV_POOL",
      "outputs": [
        {
          "internalType": "address",
          "name": "",
          "type": "address"
        }
      ],
      "stateMutability": "view",
      "type": "function"
    },
    {
      "inputs": [],
      "name": "STETH_TOKEN",
      "outputs": [
        {
          "internalType": "address",
          "name": "",
          "type": "address"
        }
      ],
      "stateMutability": "view",
      "type": "function"
    },
    {
      "inputs": [],
      "name": "WST_ETH",
      "outputs": [
        {
          "internalType": "address",
          "name": "",
          "type": "address"
        }
      ],
      "stateMutability": "view",
      "type": "function"
    },
    {
      "inputs": [],
      "name": "balance",
      "outputs": [
        {
          "internalType": "uint256",
          "name": "",
          "type": "uint256"
        }
      ],
      "stateMutability": "view",
      "type": "function"
    },
    {
      "inputs": [],
      "name": "deposit",
      "outputs": [
        {
          "internalType": "uint256",
          "name": "",
          "type": "uint256"
        }
      ],
      "stateMutability": "payable",
      "type": "function"
    },
    {
      "inputs": [
        {
          "internalType": "uint256",
          "name": "_amount",
          "type": "uint256"
        }
      ],
      "name": "ethPerDerivative",
      "outputs": [
        {
          "internalType": "uint256",
          "name": "",
          "type": "uint256"
        }
      ],
      "stateMutability": "view",
      "type": "function"
    },
    {
      "inputs": [
        {
          "internalType": "address",
          "name": "_owner",
          "type": "address"
        }
      ],
      "name": "initialize",
      "outputs": [],
      "stateMutability": "nonpayable",
      "type": "function"
    },
    {
      "inputs": [],
      "name": "maxSlippage",
      "outputs": [
        {
          "internalType": "uint256",
          "name": "",
          "type": "uint256"
        }
      ],
      "stateMutability": "view",
      "type": "function"
    },
    {
      "inputs": [],
      "name": "name",
      "outputs": [
        {
          "internalType": "string",
          "name": "",
          "type": "string"
        }
      ],
      "stateMutability": "pure",
      "type": "function"
    },
    {
      "inputs": [],
      "name": "owner",
      "outputs": [
        {
          "internalType": "address",
          "name": "",
          "type": "address"
        }
      ],
      "stateMutability": "view",
      "type": "function"
    },
    {
      "inputs": [],
      "name": "renounceOwnership",
      "outputs": [],
      "stateMutability": "nonpayable",
      "type": "function"
    },
    {
      "inputs": [
        {
          "internalType": "uint256",
          "name": "_slippage",
          "type": "uint256"
        }
      ],
      "name": "setMaxSlippage",
      "outputs": [],
      "stateMutability": "nonpayable",
      "type": "function"
    },
    {
      "inputs": [
        {
          "internalType": "address",
          "name": "newOwner",
          "type": "address"
        }
      ],
      "name": "transferOwnership",
      "outputs": [],
      "stateMutability": "nonpayable",
      "type": "function"
    },
    {
      "inputs": [
        {
          "internalType": "uint256",
          "name": "_amount",
          "type": "uint256"
        }
      ],
      "name": "withdraw",
      "outputs": [],
      "stateMutability": "nonpayable",
      "type": "function"
    },
    {
      "stateMutability": "payable",
      "type": "receive"
    }
  ],
  "bytecode": "0x608060405234801561001057600080fd5b5061001961001e565b6100de565b600054610100900460ff161561008a5760405162461bcd60e51b815260206004820152602760248201527f496e697469616c697a61626c653a20636f6e747261637420697320696e697469604482015266616c697a696e6760c81b606482015260840160405180910390fd5b60005460ff90811610156100dc576000805460ff191660ff9081179091556040519081527f7f26b83ff96e1f2b6a682f133852f6798a09c465da95921460cefb38474024989060200160405180910390a15b565b610f10806100ed6000396000f3fe6080604052600436106100e15760003560e01c80638c04166f1161007f578063bc4a8bc611610059578063bc4a8bc614610292578063c4d66de8146102ba578063d0e30db0146102da578063f2fde38b146102e257600080fd5b80638c04166f1461023c5780638da5cb5b14610252578063b69ef8a81461027d57600080fd5b806343f68a49116100bb57806343f68a49146101925780635334e8a8146101b25780635664cb48146101ff578063715018a61461022757600080fd5b806306fdde03146100ed5780632bd6de1d146101425780632e1a7d4d1461017057600080fd5b366100e857005b600080fd5b3480156100f957600080fd5b50604080518082018252600481527f4c69646f00000000000000000000000000000000000000000000000000000000602082015290516101399190610d18565b60405180910390f35b34801561014e57600080fd5b5061016261015d366004610d8b565b610302565b604051908152602001610139565b34801561017c57600080fd5b5061019061018b366004610d8b565b61039f565b005b34801561019e57600080fd5b506101906101ad366004610d8b565b61070d565b3480156101be57600080fd5b506101da73dc24316b9ae028f1497c275eb9192a3ea0f6702281565b60405173ffffffffffffffffffffffffffffffffffffffff9091168152602001610139565b34801561020b57600080fd5b506101da737f39c581f595b53c5cb19bd0b3f8da6c935e2ca081565b34801561023357600080fd5b5061019061071a565b34801561024857600080fd5b5061016260655481565b34801561025e57600080fd5b5060335473ffffffffffffffffffffffffffffffffffffffff166101da565b34801561028957600080fd5b5061016261072e565b34801561029e57600080fd5b506101da73ae7ab96520de3a18e5e111b5eaab095312d7fe8481565b3480156102c657600080fd5b506101906102d5366004610da4565b6107c2565b610162610961565b3480156102ee57600080fd5b506101906102fd366004610da4565b610b69565b6040517fbb2952fc000000000000000000000000000000000000000000000000000000008152670de0b6b3a76400006004820152600090737f39c581f595b53c5cb19bd0b3f8da6c935e2ca09063bb2952fc90602401602060405180830381865afa158015610375573d6000803e3d6000fd5b505050506040513d601f19601f820116820180604052508101906103999190610de1565b92915050565b6103a7610c20565b6040517fde0e9a3e00000000000000000000000000000000000000000000000000000000815260048101829052737f39c581f595b53c5cb19bd0b3f8da6c935e2ca09063de0e9a3e906024016020604051808303816000875af1158015610412573d6000803e3d6000fd5b505050506040513d601f19601f820116820180604052508101906104369190610de1565b506040517f70a0823100000000000000000000000000000000000000000000000000000000815230600482015260009073ae7ab96520de3a18e5e111b5eaab095312d7fe84906370a0823190602401602060405180830381865afa1580156104a2573d6000803e3d6000fd5b505050506040513d601f19601f820116820180604052508101906104c69190610de1565b6040517f095ea7b300000000000000000000000000000000000000000000000000000000815273dc24316b9ae028f1497c275eb9192a3ea0f6702260048201526024810182905290915073ae7ab96520de3a18e5e111b5eaab095312d7fe849063095ea7b3906044016020604051808303816000875af115801561054e573d6000803e3d6000fd5b505050506040513d601f19601f820116820180604052508101906105729190610dfa565b506000670de0b6b3a7640000606554670de0b6b3a76400006105949190610e4b565b61059e9084610e62565b6105a89190610e9f565b6040517f3df021240000000000000000000000000000000000000000000000000000000081526001600482015260006024820152604481018490526064810182905290915073dc24316b9ae028f1497c275eb9192a3ea0f6702290633df02124906084016020604051808303816000875af115801561062b573d6000803e3d6000fd5b505050506040513d601f19601f8201168201806040525081019061064f9190610de1565b50604051600090339047908381818185875af1925050503d8060008114610692576040519150601f19603f3d011682016040523d82523d6000602084013e610697565b606091505b5050905080610707576040517f08c379a000000000000000000000000000000000000000000000000000000000815260206004820152601460248201527f4661696c656420746f2073656e6420457468657200000000000000000000000060448201526064015b60405180910390fd5b50505050565b610715610c20565b606555565b610722610c20565b61072c6000610ca1565b565b6040517f70a08231000000000000000000000000000000000000000000000000000000008152306004820152600090737f39c581f595b53c5cb19bd0b3f8da6c935e2ca0906370a0823190602401602060405180830381865afa158015610799573d6000803e3d6000fd5b505050506040513d601f19601f820116820180604052508101906107bd9190610de1565b905090565b600054610100900460ff16158080156107e25750600054600160ff909116105b806107fc5750303b1580156107fc575060005460ff166001145b610888576040517f08c379a000000000000000000000000000000000000000000000000000000000815260206004820152602e60248201527f496e697469616c697a61626c653a20636f6e747261637420697320616c72656160448201527f647920696e697469616c697a656400000000000000000000000000000000000060648201526084016106fe565b600080547fffffffffffffffffffffffffffffffffffffffffffffffffffffffffffffff0016600117905580156108e657600080547fffffffffffffffffffffffffffffffffffffffffffffffffffffffffffff00ff166101001790555b6108ef82610ca1565b662386f26fc10000606555801561095d57600080547fffffffffffffffffffffffffffffffffffffffffffffffffffffffffffff00ff169055604051600181527f7f26b83ff96e1f2b6a682f133852f6798a09c465da95921460cefb38474024989060200160405180910390a15b5050565b600061096b610c20565b6040517f70a08231000000000000000000000000000000000000000000000000000000008152306004820152600090737f39c581f595b53c5cb19bd0b3f8da6c935e2ca0906370a0823190602401602060405180830381865afa1580156109d6573d6000803e3d6000fd5b505050506040513d601f19601f820116820180604052508101906109fa9190610de1565b604051909150600090737f39c581f595b53c5cb19bd0b3f8da6c935e2ca09034908381818185875af1925050503d8060008114610a53576040519150601f19603f3d011682016040523d82523d6000602084013e610a58565b606091505b5050905080610ac3576040517f08c379a000000000000000000000000000000000000000000000000000000000815260206004820152601460248201527f4661696c656420746f2073656e6420457468657200000000000000000000000060448201526064016106fe565b6040517f70a08231000000000000000000000000000000000000000000000000000000008152306004820152600090737f39c581f595b53c5cb19bd0b3f8da6c935e2ca0906370a0823190602401602060405180830381865afa158015610b2e573d6000803e3d6000fd5b505050506040513d601f19601f82011682018060405250810190610b529190610de1565b90506000610b608483610e4b565b94505050505090565b610b71610c20565b73ffffffffffffffffffffffffffffffffffffffff8116610c14576040517f08c379a000000000000000000000000000000000000000000000000000000000815260206004820152602660248201527f4f776e61626c653a206e6577206f776e657220697320746865207a65726f206160448201527f646472657373000000000000000000000000000000000000000000000000000060648201526084016106fe565b610c1d81610ca1565b50565b60335473ffffffffffffffffffffffffffffffffffffffff16331461072c576040517f08c379a000000000000000000000000000000000000000000000000000000000815260206004820181905260248201527f4f776e61626c653a2063616c6c6572206973206e6f7420746865206f776e657260448201526064016106fe565b6033805473ffffffffffffffffffffffffffffffffffffffff8381167fffffffffffffffffffffffff0000000000000000000000000000000000000000831681179093556040519116919082907f8be0079c531659141344cd1fd0a4f28419497f9722a3daafe3b4186f6b6457e090600090a35050565b600060208083528351808285015260005b81811015610d4557858101830151858201604001528201610d29565b81811115610d57576000604083870101525b50601f017fffffffffffffffffffffffffffffffffffffffffffffffffffffffffffffffe016929092016040019392505050565b600060208284031215610d9d57600080fd5b5035919050565b600060208284031215610db657600080fd5b813573ffffffffffffffffffffffffffffffffffffffff81168114610dda57600080fd5b9392505050565b600060208284031215610df357600080fd5b5051919050565b600060208284031215610e0c57600080fd5b81518015158114610dda57600080fd5b7f4e487b7100000000000000000000000000000000000000000000000000000000600052601160045260246000fd5b600082821015610e5d57610e5d610e1c565b500390565b6000817fffffffffffffffffffffffffffffffffffffffffffffffffffffffffffffffff0483118215151615610e9a57610e9a610e1c565b500290565b600082610ed5577f4e487b7100000000000000000000000000000000000000000000000000000000600052601260045260246000fd5b50049056fea26469706673582212206cde8d9e55a395a62ef135082c49fead34407323cb29c7be92b0e454ea81d2dc64736f6c634300080d0033",
  "linkReferences": {},
  "deployedLinkReferences": {}
}