{
  "_format": "hh-sol-artifact-1",
  "contractName": "SfrxEth",
  "sourceName": "contracts/SafEth/derivatives/SfrxEth.sol",
  "abi": [
    {
      "inputs": [],
      "stateMutability": "nonpayable",
      "type": "constructor"
    },
    {
      "anonymous": false,
      "inputs": [
        {
          "indexed": false,
          "internalType": "uint8",
          "name": "version",
          "type": "uint8"
        }
      ],
      "name": "Initialized",
      "type": "event"
    },
    {
      "anonymous": false,
      "inputs": [
        {
          "indexed": true,
          "internalType": "address",
          "name": "previousOwner",
          "type": "address"
        },
        {
          "indexed": true,
          "internalType": "address",
          "name": "newOwner",
          "type": "address"
        }
      ],
      "name": "OwnershipTransferred",
      "type": "event"
    },
    {
      "inputs": [],
      "name": "FRX_ETH_ADDRESS",
      "outputs": [
        {
          "internalType": "address",
          "name": "",
          "type": "address"
        }
      ],
      "stateMutability": "view",
      "type": "function"
    },
    {
      "inputs": [],
      "name": "FRX_ETH_CRV_POOL_ADDRESS",
      "outputs": [
        {
          "internalType": "address",
          "name": "",
          "type": "address"
        }
      ],
      "stateMutability": "view",
      "type": "function"
    },
    {
      "inputs": [],
      "name": "FRX_ETH_MINTER_ADDRESS",
      "outputs": [
        {
          "internalType": "address",
          "name": "",
          "type": "address"
        }
      ],
      "stateMutability": "view",
      "type": "function"
    },
    {
      "inputs": [],
      "name": "SFRX_ETH_ADDRESS",
      "outputs": [
        {
          "internalType": "address",
          "name": "",
          "type": "address"
        }
      ],
      "stateMutability": "view",
      "type": "function"
    },
    {
      "inputs": [],
      "name": "balance",
      "outputs": [
        {
          "internalType": "uint256",
          "name": "",
          "type": "uint256"
        }
      ],
      "stateMutability": "view",
      "type": "function"
    },
    {
      "inputs": [],
      "name": "deposit",
      "outputs": [
        {
          "internalType": "uint256",
          "name": "",
          "type": "uint256"
        }
      ],
      "stateMutability": "payable",
      "type": "function"
    },
    {
      "inputs": [
        {
          "internalType": "uint256",
          "name": "_amount",
          "type": "uint256"
        }
      ],
      "name": "ethPerDerivative",
      "outputs": [
        {
          "internalType": "uint256",
          "name": "",
          "type": "uint256"
        }
      ],
      "stateMutability": "view",
      "type": "function"
    },
    {
      "inputs": [
        {
          "internalType": "address",
          "name": "_owner",
          "type": "address"
        }
      ],
      "name": "initialize",
      "outputs": [],
      "stateMutability": "nonpayable",
      "type": "function"
    },
    {
      "inputs": [],
      "name": "maxSlippage",
      "outputs": [
        {
          "internalType": "uint256",
          "name": "",
          "type": "uint256"
        }
      ],
      "stateMutability": "view",
      "type": "function"
    },
    {
      "inputs": [],
      "name": "name",
      "outputs": [
        {
          "internalType": "string",
          "name": "",
          "type": "string"
        }
      ],
      "stateMutability": "pure",
      "type": "function"
    },
    {
      "inputs": [],
      "name": "owner",
      "outputs": [
        {
          "internalType": "address",
          "name": "",
          "type": "address"
        }
      ],
      "stateMutability": "view",
      "type": "function"
    },
    {
      "inputs": [],
      "name": "renounceOwnership",
      "outputs": [],
      "stateMutability": "nonpayable",
      "type": "function"
    },
    {
      "inputs": [
        {
          "internalType": "uint256",
          "name": "_slippage",
          "type": "uint256"
        }
      ],
      "name": "setMaxSlippage",
      "outputs": [],
      "stateMutability": "nonpayable",
      "type": "function"
    },
    {
      "inputs": [
        {
          "internalType": "address",
          "name": "newOwner",
          "type": "address"
        }
      ],
      "name": "transferOwnership",
      "outputs": [],
      "stateMutability": "nonpayable",
      "type": "function"
    },
    {
      "inputs": [
        {
          "internalType": "uint256",
          "name": "_amount",
          "type": "uint256"
        }
      ],
      "name": "withdraw",
      "outputs": [],
      "stateMutability": "nonpayable",
      "type": "function"
    },
    {
      "stateMutability": "payable",
      "type": "receive"
    }
  ],
  "bytecode": "0x608060405234801561001057600080fd5b5061001961001e565b6100de565b600054610100900460ff161561008a5760405162461bcd60e51b815260206004820152602760248201527f496e697469616c697a61626c653a20636f6e747261637420697320696e697469604482015266616c697a696e6760c81b606482015260840160405180910390fd5b60005460ff90811610156100dc576000805460ff191660ff9081179091556040519081527f7f26b83ff96e1f2b6a682f133852f6798a09c465da95921460cefb38474024989060200160405180910390a15b565b610ff4806100ed6000396000f3fe6080604052600436106100ec5760003560e01c8063715018a61161008a578063c4d66de811610059578063c4d66de8146102c5578063d0e30db0146102e5578063e36e4e06146102ed578063f2fde38b1461031557600080fd5b8063715018a61461025a5780638c04166f1461026f5780638da5cb5b14610285578063b69ef8a8146102b057600080fd5b80632bd6de1d116100c65780632bd6de1d146101c25780632e1a7d4d146101f05780633025f3a11461021257806343f68a491461023a57600080fd5b806306fdde03146100f8578063083a55251461014d5780631450eb121461019a57600080fd5b366100f357005b600080fd5b34801561010457600080fd5b50604080518082018252600481527f4672617800000000000000000000000000000000000000000000000000000000602082015290516101449190610e03565b60405180910390f35b34801561015957600080fd5b5061017573bafa44efe7901e04e39dad13167d089c559c113881565b60405173ffffffffffffffffffffffffffffffffffffffff9091168152602001610144565b3480156101a657600080fd5b50610175735e8422345238f34275888049021821e8e08caa1f81565b3480156101ce57600080fd5b506101e26101dd366004610e76565b610335565b604051908152602001610144565b3480156101fc57600080fd5b5061021061020b366004610e76565b610476565b005b34801561021e57600080fd5b5061017573ac3e018457b222d93114458476f3e3416abbe38f81565b34801561024657600080fd5b50610210610255366004610e76565b610818565b34801561026657600080fd5b50610210610825565b34801561027b57600080fd5b506101e260655481565b34801561029157600080fd5b5060335473ffffffffffffffffffffffffffffffffffffffff16610175565b3480156102bc57600080fd5b506101e2610839565b3480156102d157600080fd5b506102106102e0366004610e8f565b6108cd565b6101e2610a6c565b3480156102f957600080fd5b5061017573a1f8a6807c402e4a15ef4eba36528a3fed24e57781565b34801561032157600080fd5b50610210610330366004610e8f565b610c54565b6040517f07a2d13a000000000000000000000000000000000000000000000000000000008152670de0b6b3a76400006004820152600090819073ac3e018457b222d93114458476f3e3416abbe38f906307a2d13a90602401602060405180830381865afa1580156103aa573d6000803e3d6000fd5b505050506040513d601f19601f820116820180604052508101906103ce9190610ec5565b905073a1f8a6807c402e4a15ef4eba36528a3fed24e57773ffffffffffffffffffffffffffffffffffffffff166386fc88d36040518163ffffffff1660e01b8152600401602060405180830381865afa15801561042f573d6000803e3d6000fd5b505050506040513d601f19601f820116820180604052508101906104539190610ec5565b61046582670de0b6b3a7640000610f0d565b61046f9190610f4a565b9392505050565b61047e610d0b565b6040517fba087652000000000000000000000000000000000000000000000000000000008152600481018290523060248201819052604482015273ac3e018457b222d93114458476f3e3416abbe38f9063ba087652906064016020604051808303816000875af11580156104f6573d6000803e3d6000fd5b505050506040513d601f19601f8201168201806040525081019061051a9190610ec5565b506040517f70a08231000000000000000000000000000000000000000000000000000000008152306004820152600090735e8422345238f34275888049021821e8e08caa1f906370a0823190602401602060405180830381865afa158015610586573d6000803e3d6000fd5b505050506040513d601f19601f820116820180604052508101906105aa9190610ec5565b6040517f095ea7b300000000000000000000000000000000000000000000000000000000815273a1f8a6807c402e4a15ef4eba36528a3fed24e577600482015260248101829052909150735e8422345238f34275888049021821e8e08caa1f9063095ea7b3906044016020604051808303816000875af1158015610632573d6000803e3d6000fd5b505050506040513d601f19601f820116820180604052508101906106569190610f85565b506000670de0b6b3a7640000606554670de0b6b3a76400006106789190610fa7565b670de0b6b3a76400008561068b87610335565b6106959190610f0d565b61069f9190610f4a565b6106a99190610f0d565b6106b39190610f4a565b6040517f3df021240000000000000000000000000000000000000000000000000000000081526001600482015260006024820152604481018490526064810182905290915073a1f8a6807c402e4a15ef4eba36528a3fed24e57790633df02124906084016020604051808303816000875af1158015610736573d6000803e3d6000fd5b505050506040513d601f19601f8201168201806040525081019061075a9190610ec5565b50604051600090339047908381818185875af1925050503d806000811461079d576040519150601f19603f3d011682016040523d82523d6000602084013e6107a2565b606091505b5050905080610812576040517f08c379a000000000000000000000000000000000000000000000000000000000815260206004820152601460248201527f4661696c656420746f2073656e6420457468657200000000000000000000000060448201526064015b60405180910390fd5b50505050565b610820610d0b565b606555565b61082d610d0b565b6108376000610d8c565b565b6040517f70a0823100000000000000000000000000000000000000000000000000000000815230600482015260009073ac3e018457b222d93114458476f3e3416abbe38f906370a0823190602401602060405180830381865afa1580156108a4573d6000803e3d6000fd5b505050506040513d601f19601f820116820180604052508101906108c89190610ec5565b905090565b600054610100900460ff16158080156108ed5750600054600160ff909116105b806109075750303b158015610907575060005460ff166001145b610993576040517f08c379a000000000000000000000000000000000000000000000000000000000815260206004820152602e60248201527f496e697469616c697a61626c653a20636f6e747261637420697320616c72656160448201527f647920696e697469616c697a65640000000000000000000000000000000000006064820152608401610809565b600080547fffffffffffffffffffffffffffffffffffffffffffffffffffffffffffffff0016600117905580156109f157600080547fffffffffffffffffffffffffffffffffffffffffffffffffffffffffffff00ff166101001790555b6109fa82610d8c565b662386f26fc100006065558015610a6857600080547fffffffffffffffffffffffffffffffffffffffffffffffffffffffffffff00ff169055604051600181527f7f26b83ff96e1f2b6a682f133852f6798a09c465da95921460cefb38474024989060200160405180910390a15b5050565b6000610a76610d0b565b6040517f70a0823100000000000000000000000000000000000000000000000000000000815230600482015273bafa44efe7901e04e39dad13167d089c559c11389060009073ac3e018457b222d93114458476f3e3416abbe38f906370a0823190602401602060405180830381865afa158015610af7573d6000803e3d6000fd5b505050506040513d601f19601f82011682018060405250810190610b1b9190610ec5565b6040517f4dcd454700000000000000000000000000000000000000000000000000000000815230600482015290915073ffffffffffffffffffffffffffffffffffffffff831690634dcd454790349060240160206040518083038185885af1158015610b8b573d6000803e3d6000fd5b50505050506040513d601f19601f82011682018060405250810190610bb09190610ec5565b506040517f70a0823100000000000000000000000000000000000000000000000000000000815230600482015260009073ac3e018457b222d93114458476f3e3416abbe38f906370a0823190602401602060405180830381865afa158015610c1c573d6000803e3d6000fd5b505050506040513d601f19601f82011682018060405250810190610c409190610ec5565b9050610c4c8282610fa7565b935050505090565b610c5c610d0b565b73ffffffffffffffffffffffffffffffffffffffff8116610cff576040517f08c379a000000000000000000000000000000000000000000000000000000000815260206004820152602660248201527f4f776e61626c653a206e6577206f776e657220697320746865207a65726f206160448201527f64647265737300000000000000000000000000000000000000000000000000006064820152608401610809565b610d0881610d8c565b50565b60335473ffffffffffffffffffffffffffffffffffffffff163314610837576040517f08c379a000000000000000000000000000000000000000000000000000000000815260206004820181905260248201527f4f776e61626c653a2063616c6c6572206973206e6f7420746865206f776e65726044820152606401610809565b6033805473ffffffffffffffffffffffffffffffffffffffff8381167fffffffffffffffffffffffff0000000000000000000000000000000000000000831681179093556040519116919082907f8be0079c531659141344cd1fd0a4f28419497f9722a3daafe3b4186f6b6457e090600090a35050565b600060208083528351808285015260005b81811015610e3057858101830151858201604001528201610e14565b81811115610e42576000604083870101525b50601f017fffffffffffffffffffffffffffffffffffffffffffffffffffffffffffffffe016929092016040019392505050565b600060208284031215610e8857600080fd5b5035919050565b600060208284031215610ea157600080fd5b813573ffffffffffffffffffffffffffffffffffffffff8116811461046f57600080fd5b600060208284031215610ed757600080fd5b5051919050565b7f4e487b7100000000000000000000000000000000000000000000000000000000600052601160045260246000fd5b6000817fffffffffffffffffffffffffffffffffffffffffffffffffffffffffffffffff0483118215151615610f4557610f45610ede565b500290565b600082610f80577f4e487b7100000000000000000000000000000000000000000000000000000000600052601260045260246000fd5b500490565b600060208284031215610f9757600080fd5b8151801515811461046f57600080fd5b600082821015610fb957610fb9610ede565b50039056fea2646970667358221220e7294b7baec344b23516d65456e71da756bb36c9c18b5ab35fe4b0d9e4433cdd64736f6c634300080d0033",
  "linkReferences": {},
  "deployedLinkReferences": {}
}