{
  "_format": "hh-sol-artifact-1",
  "contractName": "AsymmetryStrategy",
  "sourceName": "contracts/AsymmetryStrategy/AsymmetryStrategy.sol",
  "abi": [
    {
      "inputs": [
        {
          "internalType": "address",
          "name": "_token",
          "type": "address"
        },
        {
          "internalType": "address",
          "name": "_rocketStorageAddress",
          "type": "address"
        },
        {
          "internalType": "address",
          "name": "_cvxNft",
          "type": "address"
        },
        {
          "internalType": "address",
          "name": "_bundleNft",
          "type": "address"
        },
        {
          "internalType": "address",
          "name": "_crvPool",
          "type": "address"
        }
      ],
      "stateMutability": "nonpayable",
      "type": "constructor"
    },
    {
      "anonymous": false,
      "inputs": [
        {
          "indexed": true,
          "internalType": "address",
          "name": "previousOwner",
          "type": "address"
        },
        {
          "indexed": true,
          "internalType": "address",
          "name": "newOwner",
          "type": "address"
        }
      ],
      "name": "OwnershipTransferred",
      "type": "event"
    },
    {
      "anonymous": false,
      "inputs": [
        {
          "indexed": false,
          "internalType": "bool",
          "name": "paused",
          "type": "bool"
        }
      ],
      "name": "StakingPaused",
      "type": "event"
    },
    {
      "anonymous": false,
      "inputs": [
        {
          "indexed": false,
          "internalType": "bool",
          "name": "paused",
          "type": "bool"
        }
      ],
      "name": "UnstakingPaused",
      "type": "event"
    },
    {
      "inputs": [
        {
          "internalType": "address",
          "name": "_pool",
          "type": "address"
        },
        {
          "internalType": "uint256",
          "name": "_ethAmount",
          "type": "uint256"
        },
        {
          "internalType": "uint256",
          "name": "_afEthAmount",
          "type": "uint256"
        }
      ],
      "name": "addAfEthCrvLiquidity",
      "outputs": [
        {
          "internalType": "uint256",
          "name": "mint",
          "type": "uint256"
        }
      ],
      "stateMutability": "nonpayable",
      "type": "function"
    },
    {
      "inputs": [
        {
          "internalType": "uint256",
          "name": "amount",
          "type": "uint256"
        }
      ],
      "name": "depositREth",
      "outputs": [
        {
          "internalType": "uint256",
          "name": "rEthAmount",
          "type": "uint256"
        }
      ],
      "stateMutability": "payable",
      "type": "function"
    },
    {
      "inputs": [
        {
          "internalType": "uint256",
          "name": "amount",
          "type": "uint256"
        }
      ],
      "name": "depositSfrax",
      "outputs": [
        {
          "internalType": "uint256",
          "name": "",
          "type": "uint256"
        }
      ],
      "stateMutability": "payable",
      "type": "function"
    },
    {
      "inputs": [
        {
          "internalType": "uint256",
          "name": "amount",
          "type": "uint256"
        }
      ],
      "name": "depositWstEth",
      "outputs": [
        {
          "internalType": "uint256",
          "name": "wstEthMintAmount",
          "type": "uint256"
        }
      ],
      "stateMutability": "payable",
      "type": "function"
    },
    {
      "inputs": [],
      "name": "getAsymmetryRatio",
      "outputs": [
        {
          "internalType": "uint256",
          "name": "ratio",
          "type": "uint256"
        }
      ],
      "stateMutability": "view",
      "type": "function"
    },
    {
      "inputs": [],
      "name": "getCrvPriceData",
      "outputs": [
        {
          "internalType": "uint256",
          "name": "",
          "type": "uint256"
        }
      ],
      "stateMutability": "view",
      "type": "function"
    },
    {
      "inputs": [],
      "name": "getCvxPriceData",
      "outputs": [
        {
          "internalType": "uint256",
          "name": "",
          "type": "uint256"
        }
      ],
      "stateMutability": "view",
      "type": "function"
    },
    {
      "inputs": [],
      "name": "getName",
      "outputs": [
        {
          "internalType": "string",
          "name": "",
          "type": "string"
        }
      ],
      "stateMutability": "pure",
      "type": "function"
    },
    {
      "inputs": [
        {
          "internalType": "uint256",
          "name": "_amountOut",
          "type": "uint256"
        }
      ],
      "name": "lockCvx",
      "outputs": [
        {
          "internalType": "uint256",
          "name": "amount",
          "type": "uint256"
        }
      ],
      "stateMutability": "nonpayable",
      "type": "function"
    },
    {
      "inputs": [
        {
          "internalType": "address",
          "name": "",
          "type": "address"
        },
        {
          "internalType": "address",
          "name": "",
          "type": "address"
        },
        {
          "internalType": "uint256[]",
          "name": "",
          "type": "uint256[]"
        },
        {
          "internalType": "uint256[]",
          "name": "",
          "type": "uint256[]"
        },
        {
          "internalType": "bytes",
          "name": "",
          "type": "bytes"
        }
      ],
      "name": "onERC1155BatchReceived",
      "outputs": [
        {
          "internalType": "bytes4",
          "name": "",
          "type": "bytes4"
        }
      ],
      "stateMutability": "nonpayable",
      "type": "function"
    },
    {
      "inputs": [
        {
          "internalType": "address",
          "name": "",
          "type": "address"
        },
        {
          "internalType": "address",
          "name": "",
          "type": "address"
        },
        {
          "internalType": "uint256",
          "name": "",
          "type": "uint256"
        },
        {
          "internalType": "uint256",
          "name": "",
          "type": "uint256"
        },
        {
          "internalType": "bytes",
          "name": "",
          "type": "bytes"
        }
      ],
      "name": "onERC1155Received",
      "outputs": [
        {
          "internalType": "bytes4",
          "name": "",
          "type": "bytes4"
        }
      ],
      "stateMutability": "nonpayable",
      "type": "function"
    },
    {
      "inputs": [],
      "name": "owner",
      "outputs": [
        {
          "internalType": "address",
          "name": "",
          "type": "address"
        }
      ],
      "stateMutability": "view",
      "type": "function"
    },
    {
      "inputs": [
        {
          "internalType": "address",
          "name": "",
          "type": "address"
        }
      ],
      "name": "positions",
      "outputs": [
        {
          "internalType": "uint256",
          "name": "positionID",
          "type": "uint256"
        },
        {
          "internalType": "address",
          "name": "userAddress",
          "type": "address"
        },
        {
          "internalType": "uint256",
          "name": "rocketBalances",
          "type": "uint256"
        },
        {
          "internalType": "uint256",
          "name": "lidoBalances",
          "type": "uint256"
        },
        {
          "internalType": "uint256",
          "name": "curveBalances",
          "type": "uint256"
        },
        {
          "internalType": "uint256",
          "name": "convexBalances",
          "type": "uint256"
        },
        {
          "internalType": "uint256",
          "name": "balancerBalances",
          "type": "uint256"
        },
        {
          "internalType": "uint256",
          "name": "cvxNFTID",
          "type": "uint256"
        },
        {
          "internalType": "uint256",
          "name": "bundleNFTID",
          "type": "uint256"
        },
        {
          "internalType": "uint256",
          "name": "afETH",
          "type": "uint256"
        },
        {
          "internalType": "uint256",
          "name": "createdAt",
          "type": "uint256"
        },
        {
          "internalType": "uint256",
          "name": "sfraxBalances",
          "type": "uint256"
        }
      ],
      "stateMutability": "view",
      "type": "function"
    },
    {
      "inputs": [],
      "name": "renounceOwnership",
      "outputs": [],
      "stateMutability": "nonpayable",
      "type": "function"
    },
    {
      "inputs": [
        {
          "internalType": "uint256",
          "name": "amount",
          "type": "uint256"
        }
      ],
      "name": "rethPrice",
      "outputs": [
        {
          "internalType": "uint256",
          "name": "",
          "type": "uint256"
        }
      ],
      "stateMutability": "view",
      "type": "function"
    },
    {
      "inputs": [
        {
          "internalType": "bool",
          "name": "_pause",
          "type": "bool"
        }
      ],
      "name": "setPauseStaking",
      "outputs": [],
      "stateMutability": "nonpayable",
      "type": "function"
    },
    {
      "inputs": [
        {
          "internalType": "bool",
          "name": "_pause",
          "type": "bool"
        }
      ],
      "name": "setPauseuntaking",
      "outputs": [],
      "stateMutability": "nonpayable",
      "type": "function"
    },
    {
      "inputs": [
        {
          "internalType": "address",
          "name": "_token",
          "type": "address"
        },
        {
          "internalType": "address",
          "name": "_vault",
          "type": "address"
        }
      ],
      "name": "setVault",
      "outputs": [],
      "stateMutability": "nonpayable",
      "type": "function"
    },
    {
      "inputs": [
        {
          "internalType": "uint256",
          "name": "amount",
          "type": "uint256"
        }
      ],
      "name": "sfrxEthPrice",
      "outputs": [
        {
          "internalType": "uint256",
          "name": "",
          "type": "uint256"
        }
      ],
      "stateMutability": "view",
      "type": "function"
    },
    {
      "inputs": [],
      "name": "stake",
      "outputs": [],
      "stateMutability": "payable",
      "type": "function"
    },
    {
      "inputs": [
        {
          "internalType": "bytes4",
          "name": "interfaceId",
          "type": "bytes4"
        }
      ],
      "name": "supportsInterface",
      "outputs": [
        {
          "internalType": "bool",
          "name": "",
          "type": "bool"
        }
      ],
      "stateMutability": "view",
      "type": "function"
    },
    {
      "inputs": [
        {
          "internalType": "address",
          "name": "tokenIn",
          "type": "address"
        },
        {
          "internalType": "address",
          "name": "tokenOut",
          "type": "address"
        },
        {
          "internalType": "uint24",
          "name": "poolFee",
          "type": "uint24"
        },
        {
          "internalType": "uint256",
          "name": "amountIn",
          "type": "uint256"
        }
      ],
      "name": "swapExactInputSingleHop",
      "outputs": [
        {
          "internalType": "uint256",
          "name": "amountOut",
          "type": "uint256"
        }
      ],
      "stateMutability": "nonpayable",
      "type": "function"
    },
    {
      "inputs": [
        {
          "internalType": "address",
          "name": "newOwner",
          "type": "address"
        }
      ],
      "name": "transferOwnership",
      "outputs": [],
      "stateMutability": "nonpayable",
      "type": "function"
    },
    {
      "inputs": [
        {
          "internalType": "bool",
          "name": "_instantWithdraw",
          "type": "bool"
        }
      ],
      "name": "unstake",
      "outputs": [],
      "stateMutability": "nonpayable",
      "type": "function"
    },
    {
      "inputs": [
        {
          "internalType": "address",
          "name": "",
          "type": "address"
        }
      ],
      "name": "vaults",
      "outputs": [
        {
          "internalType": "address",
          "name": "",
          "type": "address"
        }
      ],
      "stateMutability": "view",
      "type": "function"
    },
    {
      "inputs": [
        {
          "internalType": "address",
          "name": "_pool",
          "type": "address"
        },
        {
          "internalType": "uint256",
          "name": "_amount",
          "type": "uint256"
        }
      ],
      "name": "withdrawCRVPool",
      "outputs": [],
      "stateMutability": "nonpayable",
      "type": "function"
    },
    {
      "inputs": [],
      "name": "withdrawREth",
      "outputs": [],
      "stateMutability": "nonpayable",
      "type": "function"
    },
    {
      "inputs": [
        {
          "internalType": "uint256",
          "name": "amount",
          "type": "uint256"
        }
      ],
      "name": "withdrawSfrax",
      "outputs": [],
      "stateMutability": "nonpayable",
      "type": "function"
    },
    {
      "inputs": [
        {
          "internalType": "uint256",
          "name": "_amount",
          "type": "uint256"
        }
      ],
      "name": "withdrawWstEth",
      "outputs": [],
      "stateMutability": "nonpayable",
      "type": "function"
    },
    {
      "stateMutability": "payable",
      "type": "receive"
    }
  ],
  "bytecode": "0x60806040526064600a556003600b55600d80546001600160a01b03191673ba12222222228d8ba445958a75a0704d566bf2c81790557f32296969ef14eb0c6d29669c550d4a0449130230000200000000000000000080600e55600f80546001600160b01b031916735addcca35b7a0d07c74063c48700c8590e87864e1790553480156200008b57600080fd5b5060405162003fc738038062003fc7833981016040819052620000ae9162000316565b620000b933620002a9565b600580546001600160a01b03199081166001600160a01b03968716179091556006805482169686169690961790955560078054861693851693909317909255600880548516918416919091179055600c80549093169116179055600160205263106159337fcc69885fda6bcc1a4ace058b4a62bf5e179ea78fd58a1ccd71c22cc9b688792f55630dc62bf27fd9d16d34ffb15ba3a3d852f0d403e2ce1d691fb54de27ac87cd2f993f3ec330f55630b9525267f7dfe757ecd65cbd7922a9c0161e935dd7fdbcc0e999689c7d31633896b1fc60b556309bd61407fedc95719e9a3b28dd8e80877cb5880a9be7de1a13fc8b05e7999683b6b56764355630830ac997fe2689cd4a84e23ad2f564004f1c9013e9589d260bde6380aba3ca7e09e4df40c556306e315f97f8f331abe73332f95a25873e8b430885974c0409691f89d643119a11623a7924a556305ca92937fdc686ec4a0ff239c70e7c7c36e8f853eced3bc8618f48d2b816da2a74311237e556304deb0a07f4db623e5c4870b62d3fc9b4e8f893a1a77627d75ab45d9ff7e56ba19564af99b55630418564c7f74a5fbcb419ab7dbacbb2c92a4e163730f0da5c72b911deecf4f05a6b327d0a455600a6000526303718afc7f2a32391a76c35a36352b711f9152c0d0a340cd686850c8ef25fbb11c71b89e7b5562000386565b600080546001600160a01b038381166001600160a01b0319831681178455604051919092169283917f8be0079c531659141344cd1fd0a4f28419497f9722a3daafe3b4186f6b6457e09190a35050565b80516001600160a01b03811681146200031157600080fd5b919050565b600080600080600060a086880312156200032f57600080fd5b6200033a86620002f9565b94506200034a60208701620002f9565b93506200035a60408701620002f9565b92506200036a60608701620002f9565b91506200037a60808701620002f9565b90509295509295909350565b613c3180620003966000396000f3fe6080604052600436106101c55760003560e01c8063722621b6116100f7578063b4fecc0311610095578063eb6c62f911610064578063eb6c62f914610665578063f16a30ea14610685578063f23a6e611461069a578063f2fde38b146106df57600080fd5b8063b4fecc031461059c578063b536f6e2146105af578063bc197c81146105cf578063c3b1b05e1461064557600080fd5b80638878218e116100d15780638878218e146104d85780638da5cb5b146104ed5780639384275114610539578063a622ee7c1461055957600080fd5b8063722621b6146104905780637e7fb711146104a357806386a18be7146104c357600080fd5b80634beb9bcc1161016457806360593dc01161013e57806360593dc0146104265780636d49e0b61461043b578063714ccf7b1461045b578063715018a61461047b57600080fd5b80634beb9bcc146102dd5780634e7f57e9146102fd57806355f575101461031d57600080fd5b8063088abb8d116101a0578063088abb8d1461024857806317d7de7c146102685780632ea315de146102b45780633a4b66f1146102d557600080fd5b8062a5aa33146101d157806301ffc9a7146101f357806305d514801461022857600080fd5b366101cc57005b600080fd5b3480156101dd57600080fd5b506101f16101ec366004613307565b6106ff565b005b3480156101ff57600080fd5b5061021361020e366004613320565b610981565b60405190151581526020015b60405180910390f35b34801561023457600080fd5b506101f1610243366004613384565b610a1a565b34801561025457600080fd5b506101f16102633660046133be565b610acd565b34801561027457600080fd5b50604080518082018252601981527f4173796d6d6574727946696e616e6365205374726174656779000000000000006020820152905161021f9190613446565b6102c76102c2366004613307565b610d1c565b60405190815260200161021f565b6101f161115c565b3480156102e957600080fd5b506102c76102f8366004613459565b6114ee565b34801561030957600080fd5b506102c7610318366004613307565b611739565b34801561032957600080fd5b506103b861033836600461348e565b60036020528060005260406000206000915090508060000154908060010160009054906101000a900473ffffffffffffffffffffffffffffffffffffffff169080600201549080600301549080600401549080600501549080600601549080600701549080600801549080600901549080600a01549080600b015490508c565b604080519c8d5273ffffffffffffffffffffffffffffffffffffffff909b1660208d0152998b019890985260608a0196909652608089019490945260a088019290925260c087015260e08601526101008501526101208401526101408301526101608201526101800161021f565b34801561043257600080fd5b506102c7611869565b34801561044757600080fd5b506101f16104563660046133be565b6119b0565b34801561046757600080fd5b506101f16104763660046134ab565b611a3c565b34801561048757600080fd5b506101f1611b37565b6102c761049e366004613307565b611b4b565b3480156104af57600080fd5b506102c76104be366004613307565b611d25565b3480156104cf57600080fd5b506102c7611ef6565b3480156104e457600080fd5b506101f1611ff0565b3480156104f957600080fd5b5060005473ffffffffffffffffffffffffffffffffffffffff165b60405173ffffffffffffffffffffffffffffffffffffffff909116815260200161021f565b34801561054557600080fd5b506102c76105543660046134e4565b612224565b34801561056557600080fd5b5061051461057436600461348e565b60026020526000908152604090205473ffffffffffffffffffffffffffffffffffffffff1681565b6102c76105aa366004613307565b6123f0565b3480156105bb57600080fd5b506102c76105ca366004613307565b6125e7565b3480156105db57600080fd5b506106146105ea3660046136c9565b7fbc197c810000000000000000000000000000000000000000000000000000000095945050505050565b6040517fffffffff00000000000000000000000000000000000000000000000000000000909116815260200161021f565b34801561065157600080fd5b506101f1610660366004613307565b612677565b34801561067157600080fd5b506101f16106803660046133be565b612964565b34801561069157600080fd5b506102c76129e6565b3480156106a657600080fd5b506106146106b5366004613777565b7ff23a6e610000000000000000000000000000000000000000000000000000000095945050505050565b3480156106eb57600080fd5b506101f16106fa36600461348e565b612bec565b6040517fba087652000000000000000000000000000000000000000000000000000000008152600481018290523060248201819052604482015273ac3e018457b222d93114458476f3e3416abbe38f9063ba087652906064016020604051808303816000875af1158015610777573d6000803e3d6000fd5b505050506040513d601f19601f8201168201806040525081019061079b91906137e0565b506040517f70a08231000000000000000000000000000000000000000000000000000000008152306004820152600090735e8422345238f34275888049021821e8e08caa1f906370a0823190602401602060405180830381865afa158015610807573d6000803e3d6000fd5b505050506040513d601f19601f8201168201806040525081019061082b91906137e0565b6040517f095ea7b300000000000000000000000000000000000000000000000000000000815273a1f8a6807c402e4a15ef4eba36528a3fed24e577600482015260248101829052909150735e8422345238f34275888049021821e8e08caa1f9063095ea7b3906044016020604051808303816000875af11580156108b3573d6000803e3d6000fd5b505050506040513d601f19601f820116820180604052508101906108d791906137f9565b506040517f3df021240000000000000000000000000000000000000000000000000000000081526001600482015260006024820181905260448201839052606482015273a1f8a6807c402e4a15ef4eba36528a3fed24e57790633df02124906084016020604051808303816000875af1158015610958573d6000803e3d6000fd5b505050506040513d601f19601f8201168201806040525081019061097c91906137e0565b505050565b60007fffffffff0000000000000000000000000000000000000000000000000000000082167f4e2312e0000000000000000000000000000000000000000000000000000000001480610a1457507f01ffc9a7000000000000000000000000000000000000000000000000000000007fffffffff000000000000000000000000000000000000000000000000000000008316145b92915050565b81610a236132e9565b60008082526020808301829052338252600390526040808220600490810192909255517f5b36389c00000000000000000000000000000000000000000000000000000000815273ffffffffffffffffffffffffffffffffffffffff841691635b36389c91610a9591879186910161383f565b600060405180830381600087803b158015610aaf57600080fd5b505af1158015610ac3573d6000803e3d6000fd5b5050505050505050565b600f547501000000000000000000000000000000000000000000900460ff1615610b58576040517f08c379a000000000000000000000000000000000000000000000000000000000815260206004820152601360248201527f756e7374616b696e67206973207061757365640000000000000000000000000060448201526064015b60405180910390fd5b6006546040517f70a0823100000000000000000000000000000000000000000000000000000000815233600482015260009173ffffffffffffffffffffffffffffffffffffffff16906370a0823190602401602060405180830381865afa158015610bc7573d6000803e3d6000fd5b505050506040513d601f19601f82011682018060405250810190610beb91906137e0565b9050610bf682612ca3565b600c54610c1c9073ffffffffffffffffffffffffffffffffffffffff16620186a0610a1a565b610c3433600090815260036020526040812060090155565b6040517f70a0823100000000000000000000000000000000000000000000000000000000815230600482015273c02aaa39b223fe8d0a0e5c4f27ead9083c756cc290632e1a7d4d9082906370a0823190602401602060405180830381865afa158015610ca4573d6000803e3d6000fd5b505050506040513d601f19601f82011682018060405250810190610cc891906137e0565b6040518263ffffffff1660e01b8152600401610ce691815260200190565b600060405180830381600087803b158015610d0057600080fd5b505af1158015610d14573d6000803e3d6000fd5b505050505050565b6005546040517f636f6e74726163742e616464726573730000000000000000000000000000000060208201527f726f636b65744465706f736974506f6f6c0000000000000000000000000000006030820152600091829173ffffffffffffffffffffffffffffffffffffffff909116906321f8a72190604101604051602081830303815290604052805190602001206040518263ffffffff1660e01b8152600401610dc991815260200190565b602060405180830381865afa158015610de6573d6000803e3d6000fd5b505050506040513d601f19601f82011682018060405250810190610e0a9190613853565b90506000819050600069010f0cf064dd59200000858373ffffffffffffffffffffffffffffffffffffffff166312065fe06040518163ffffffff1660e01b8152600401602060405180830381865afa158015610e6a573d6000803e3d6000fd5b505050506040513d601f19601f82011682018060405250810190610e8e91906137e0565b610e98919061389f565b1115905080610f585773c02aaa39b223fe8d0a0e5c4f27ead9083c756cc273ffffffffffffffffffffffffffffffffffffffff1663d0e30db0866040518263ffffffff1660e01b81526004016000604051808303818588803b158015610efd57600080fd5b505af1158015610f11573d6000803e3d6000fd5b50505050506000610f4e73c02aaa39b223fe8d0a0e5c4f27ead9083c756cc273ae78736cd615f374d3085123a210448e74fc63936101f489612224565b9695505050505050565b6040517f70a0823100000000000000000000000000000000000000000000000000000000815230600482015260009073ae78736cd615f374d3085123a210448e74fc6393906370a0823190602401602060405180830381865afa158015610fc3573d6000803e3d6000fd5b505050506040513d601f19601f82011682018060405250810190610fe791906137e0565b90508273ffffffffffffffffffffffffffffffffffffffff1663d0e30db0876040518263ffffffff1660e01b81526004016000604051808303818588803b15801561103157600080fd5b505af1158015611045573d6000803e3d6000fd5b50506040517f70a082310000000000000000000000000000000000000000000000000000000081523060048201526000935073ae78736cd615f374d3085123a210448e74fc639392506370a082319150602401602060405180830381865afa1580156110b5573d6000803e3d6000fd5b505050506040513d601f19601f820116820180604052508101906110d991906137e0565b9050818111611144576040517f08c379a000000000000000000000000000000000000000000000000000000000815260206004820152601260248201527f4e6f207245544820776173206d696e74656400000000000000000000000000006044820152606401610b4f565b600061115083836138b7565b98975050505050505050565b600f5474010000000000000000000000000000000000000000900460ff16156111e1576040517f08c379a000000000000000000000000000000000000000000000000000000000815260206004820152601160248201527f7374616b696e67206973207061757365640000000000000000000000000000006044820152606401610b4f565b60006111eb6129e6565b905060006127106111fc83346138ce565b611206919061390b565b90506000600261121683346138b7565b611220919061390b565b9050600061122d83612e9a565b9050600061123a82611d25565b90506000806112493384612f49565b915091506000611260600b54876105aa919061390b565b90506000611275600b54886102c2919061390b565b9050600061128a600b548961049e919061390b565b9050876112a533600090815260036020526040812060090155565b600c546000906112cc9073ffffffffffffffffffffffffffffffffffffffff168b846114ee565b3360008181526003602052604090206001015491925073ffffffffffffffffffffffffffffffffffffffff90911603611361576040517f08c379a000000000000000000000000000000000000000000000000000000000815260206004820152601a60248201527f5573657220616c72656164792068617320706f736974696f6e2e0000000000006044820152606401610b4f565b600060046000815461137290613946565b91905081905590506040518061018001604052808281526020013373ffffffffffffffffffffffffffffffffffffffff1681526020018681526020018781526020018381526020018a815260200160008152602001888152602001600081526020018c815260200142815260200185815250600360003373ffffffffffffffffffffffffffffffffffffffff1673ffffffffffffffffffffffffffffffffffffffff1681526020019081526020016000206000820151816000015560208201518160010160006101000a81548173ffffffffffffffffffffffffffffffffffffffff021916908373ffffffffffffffffffffffffffffffffffffffff16021790555060408201518160020155606082015181600301556080820151816004015560a0820151816005015560c0820151816006015560e082015181600701556101008201518160080155610120820151816009015561014082015181600a015561016082015181600b015590505050505050505050505050505050565b60004783111561155a576040517f08c379a000000000000000000000000000000000000000000000000000000000815260206004820152600e60248201527f4e6f7420456e6f756768204554480000000000000000000000000000000000006044820152606401610b4f565b73c02aaa39b223fe8d0a0e5c4f27ead9083c756cc273ffffffffffffffffffffffffffffffffffffffff1663d0e30db0846040518263ffffffff1660e01b81526004016000604051808303818588803b1580156115b657600080fd5b505af11580156115ca573d6000803e3d6000fd5b50506040517f095ea7b300000000000000000000000000000000000000000000000000000000815273ffffffffffffffffffffffffffffffffffffffff881660048201526024810187905273c02aaa39b223fe8d0a0e5c4f27ead9083c756cc2935063095ea7b3925060440190506020604051808303816000875af1158015611657573d6000803e3d6000fd5b505050506040513d601f19601f8201168201806040525081019061167b91906137f9565b506040805180820182528381526020810185905290517fee22be2300000000000000000000000000000000000000000000000000000000815260009073ffffffffffffffffffffffffffffffffffffffff87169063ee22be23906116ea908590620186a090869060040161397e565b6020604051808303816000875af1158015611709573d6000803e3d6000fd5b505050506040513d601f19601f8201168201806040525081019061172d91906137e0565b925050505b9392505050565b6040517f07a2d13a00000000000000000000000000000000000000000000000000000000815260048101829052600090819073ac3e018457b222d93114458476f3e3416abbe38f906307a2d13a90602401602060405180830381865afa1580156117a7573d6000803e3d6000fd5b505050506040513d601f19601f820116820180604052508101906117cb91906137e0565b6040517f556d6e9f00000000000000000000000000000000000000000000000000000000815260006004820152600160248201526044810182905290915073a1f8a6807c402e4a15ef4eba36528a3fed24e5779063556d6e9f90606401602060405180830381865afa158015611845573d6000803e3d6000fd5b505050506040513d601f19601f8201168201806040525081019061173291906137e0565b60008073d962fc30a72a84ce50161031391756bf2876af5d73ffffffffffffffffffffffffffffffffffffffff1663feaf968c6040518163ffffffff1660e01b815260040160a060405180830381865afa1580156118cb573d6000803e3d6000fd5b505050506040513d601f19601f820116820180604052508101906118ef91906139c1565b5050509150506000811215611902575060005b600073d962fc30a72a84ce50161031391756bf2876af5d73ffffffffffffffffffffffffffffffffffffffff1663313ce5676040518163ffffffff1660e01b8152600401602060405180830381865afa158015611963573d6000803e3d6000fd5b505050506040513d601f19601f820116820180604052508101906119879190613a11565b9050611994816002613a34565b61199f90600a613b79565b6119a990836138ce565b9250505090565b6119b86130b4565b600f805482151574010000000000000000000000000000000000000000027fffffffffffffffffffffff00ffffffffffffffffffffffffffffffffffffffff9091161790556040517f3cf4fe733160f8f8c48336fab32acee32ebaaa423a08a2be4e5ceff97dd98c6990611a3190831515815260200190565b60405180910390a150565b611a446130b4565b73ffffffffffffffffffffffffffffffffffffffff8281166000818152600260205260409081902080547fffffffffffffffffffffffff0000000000000000000000000000000000000000169385169384179055517f095ea7b300000000000000000000000000000000000000000000000000000000815260048101929092527fffffffffffffffffffffffffffffffffffffffffffffffffffffffffffffffff60248301529063095ea7b3906044016020604051808303816000875af1158015611b13573d6000803e3d6000fd5b505050506040513d601f19601f8201168201806040525081019061097c91906137f9565b611b3f6130b4565b611b496000613135565b565b6040517f70a0823100000000000000000000000000000000000000000000000000000000815230600482015260009073bafa44efe7901e04e39dad13167d089c559c1138908190839073ac3e018457b222d93114458476f3e3416abbe38f906370a0823190602401602060405180830381865afa158015611bd0573d6000803e3d6000fd5b505050506040513d601f19601f82011682018060405250810190611bf491906137e0565b6040517f4dcd454700000000000000000000000000000000000000000000000000000000815230600482015290915073ffffffffffffffffffffffffffffffffffffffff831690634dcd454790879060240160206040518083038185885af1158015611c64573d6000803e3d6000fd5b50505050506040513d601f19601f82011682018060405250810190611c8991906137e0565b506040517f70a0823100000000000000000000000000000000000000000000000000000000815230600482015260009073ac3e018457b222d93114458476f3e3416abbe38f906370a0823190602401602060405180830381865afa158015611cf5573d6000803e3d6000fd5b505050506040513d601f19601f82011682018060405250810190611d1991906137e0565b9050610f4e82826138b7565b6040517f095ea7b30000000000000000000000000000000000000000000000000000000081527372a19342e8f1838460ebfccef09f6585e32db86e6004820152602481018290526000908290734e3fbd56cd56c3e72c1403e103b45db9da5b9d2b9063095ea7b3906044016020604051808303816000875af1158015611daf573d6000803e3d6000fd5b505050506040513d601f19601f82011682018060405250810190611dd391906137f9565b506040517fe2ab691d00000000000000000000000000000000000000000000000000000000815230600482015260248101829052600060448201527372a19342e8f1838460ebfccef09f6585e32db86e9063e2ab691d90606401600060405180830381600087803b158015611e4757600080fd5b505af1158015611e5b573d6000803e3d6000fd5b50506040517f59355736000000000000000000000000000000000000000000000000000000008152306004820152600092507372a19342e8f1838460ebfccef09f6585e32db86e9150635935573690602401602060405180830381865afa158015611eca573d6000803e3d6000fd5b505050506040513d601f19601f82011682018060405250810190611eee91906137e0565b949350505050565b60008073cd627aa160a6fa45eb793d19ef54f5062f20f33f73ffffffffffffffffffffffffffffffffffffffff1663feaf968c6040518163ffffffff1660e01b815260040160a060405180830381865afa158015611f58573d6000803e3d6000fd5b505050506040513d601f19601f82011682018060405250810190611f7c91906139c1565b5050509150506000811215611f8f575060005b600073cd627aa160a6fa45eb793d19ef54f5062f20f33f73ffffffffffffffffffffffffffffffffffffffff1663313ce5676040518163ffffffff1660e01b8152600401602060405180830381865afa158015611963573d6000803e3d6000fd5b6040517f70a0823100000000000000000000000000000000000000000000000000000000815230600482015260009073ae78736cd615f374d3085123a210448e74fc6393906370a0823190602401602060405180830381865afa15801561205b573d6000803e3d6000fd5b505050506040513d601f19601f8201168201806040525081019061207f91906137e0565b336000908152600360205260408082206002018054929055517f42966c68000000000000000000000000000000000000000000000000000000008152600481018290529192509073ae78736cd615f374d3085123a210448e74fc6393906342966c6890602401600060405180830381600087803b1580156120ff57600080fd5b505af1158015612113573d6000803e3d6000fd5b50506040517f70a082310000000000000000000000000000000000000000000000000000000081523060048201526000925073ae78736cd615f374d3085123a210448e74fc639391506370a0823190602401602060405180830381865afa158015612182573d6000803e3d6000fd5b505050506040513d601f19601f820116820180604052508101906121a691906137e0565b9050808311612211576040517f08c379a000000000000000000000000000000000000000000000000000000000815260206004820152601260248201527f4e6f207245544820776173206275726e656400000000000000000000000000006044820152606401610b4f565b600061221d82856138b7565b5050505050565b6040517f095ea7b30000000000000000000000000000000000000000000000000000000081527368b3465833fb72a70ecdf485e0e4c7bd8665fc4560048201526024810182905260009073ffffffffffffffffffffffffffffffffffffffff86169063095ea7b3906044016020604051808303816000875af11580156122ae573d6000803e3d6000fd5b505050506040513d601f19601f820116820180604052508101906122d291906137f9565b506040805160e08101825273ffffffffffffffffffffffffffffffffffffffff87811682528681166020830190815262ffffff878116848601908152306060860190815260808601898152600160a08801908152600060c0890190815298517f04e45aaf000000000000000000000000000000000000000000000000000000008152885188166004820152955187166024870152925190931660448501525184166064840152905160848301525160a482015292511660c4830152907368b3465833fb72a70ecdf485e0e4c7bd8665fc45906304e45aaf9060e4016020604051808303816000875af11580156123cc573d6000803e3d6000fd5b505050506040513d601f19601f82011682018060405250810190610f4e91906137e0565b6040517f70a082310000000000000000000000000000000000000000000000000000000081523060048201526000908190737f39c581f595b53c5cb19bd0b3f8da6c935e2ca0906370a0823190602401602060405180830381865afa15801561245d573d6000803e3d6000fd5b505050506040513d601f19601f8201168201806040525081019061248191906137e0565b604051909150600090737f39c581f595b53c5cb19bd0b3f8da6c935e2ca09085908381818185875af1925050503d80600081146124da576040519150601f19603f3d011682016040523d82523d6000602084013e6124df565b606091505b505090508061254a576040517f08c379a000000000000000000000000000000000000000000000000000000000815260206004820152601460248201527f4661696c656420746f2073656e642045746865720000000000000000000000006044820152606401610b4f565b6040517f70a08231000000000000000000000000000000000000000000000000000000008152306004820152600090737f39c581f595b53c5cb19bd0b3f8da6c935e2ca0906370a0823190602401602060405180830381865afa1580156125b5573d6000803e3d6000fd5b505050506040513d601f19601f820116820180604052508101906125d991906137e0565b90506000610f4e84836138b7565b6040517f8b32fa230000000000000000000000000000000000000000000000000000000081526004810182905260009073ae78736cd615f374d3085123a210448e74fc639390638b32fa2390602401602060405180830381865afa158015612653573d6000803e3d6000fd5b505050506040513d601f19601f82011682018060405250810190610a1491906137e0565b33600090815260036020819052604080832090910191909155517fde0e9a3e00000000000000000000000000000000000000000000000000000000815260048101829052737f39c581f595b53c5cb19bd0b3f8da6c935e2ca09063de0e9a3e906024016020604051808303816000875af11580156126f9573d6000803e3d6000fd5b505050506040513d601f19601f8201168201806040525081019061271d91906137e0565b506040517f70a0823100000000000000000000000000000000000000000000000000000000815230600482015260009073ae7ab96520de3a18e5e111b5eaab095312d7fe84906370a0823190602401602060405180830381865afa158015612789573d6000803e3d6000fd5b505050506040513d601f19601f820116820180604052508101906127ad91906137e0565b6040517f095ea7b300000000000000000000000000000000000000000000000000000000815273dc24316b9ae028f1497c275eb9192a3ea0f6702260048201526024810182905290915073ae7ab96520de3a18e5e111b5eaab095312d7fe849063095ea7b3906044016020604051808303816000875af1158015612835573d6000803e3d6000fd5b505050506040513d601f19601f8201168201806040525081019061285991906137f9565b5061287c604051806060016040528060218152602001613bdb60219139476131aa565b6040517f3df021240000000000000000000000000000000000000000000000000000000081526001600482015260006024820181905260448201839052606482015273dc24316b9ae028f1497c275eb9192a3ea0f6702290633df02124906084016020604051808303816000875af11580156128fc573d6000803e3d6000fd5b505050506040513d601f19601f8201168201806040525081019061292091906137e0565b506129606040518060400160405280602081526020017f457468206166746572207377617070696e6720737465746820746f206574683a815250476131aa565b5050565b61296c6130b4565b600f80548215157501000000000000000000000000000000000000000000027fffffffffffffffffffff00ffffffffffffffffffffffffffffffffffffffffff9091161790556040517f0c7f3357f9df485f4d8a04f45e87783b560f907fc7d2f72b4377ca33aa49308e90611a3190831515815260200190565b6000806129f1611ef6565b905060006129fd611869565b90506000734e3fbd56cd56c3e72c1403e103b45db9da5b9d2b73ffffffffffffffffffffffffffffffffffffffff166318160ddd6040518163ffffffff1660e01b8152600401602060405180830381865afa158015612a60573d6000803e3d6000fd5b505050506040513d601f19601f82011682018060405250810190612a8491906137e0565b9050629896806105dc601e60006301e1853e612aa4635f3779e0426138b7565b612aae919061390b565b612ab990600161389f565b60008181526001602052604081205491925090612ad99061016d9061390b565b905060008887612aea86600a613b88565b612af490856138ce565b612afe919061390b565b612b0a9061016d6138ce565b612b1491906138ce565b9050600081612b2486600a613b88565b88612b316127108261390b565b612b3d8a61271061389f565b612b4791906138ce565b612b5191906138b7565b612b5b91906138ce565b612b65919061390b565b90506000612710670de0b6b3a7640000612b7f8c856138ce565b612b89919061390b565b612b93908a61389f565b670de0b6b3a7640000612ba68d866138ce565b612bb0919061390b565b612bbc906127106138ce565b612bc6919061390b565b612bd2906127106138ce565b612bdc919061390b565b9c9b505050505050505050505050565b612bf46130b4565b73ffffffffffffffffffffffffffffffffffffffff8116612c97576040517f08c379a000000000000000000000000000000000000000000000000000000000815260206004820152602660248201527f4f776e61626c653a206e6577206f776e657220697320746865207a65726f206160448201527f64647265737300000000000000000000000000000000000000000000000000006064820152608401610b4f565b612ca081613135565b50565b801515600103612e5b5760078054336000818152600360205260408082209485015460059095015490517ff242432a00000000000000000000000000000000000000000000000000000000815230600482015260248101939093526044830194909452606482019390935260a0608482015260a481019290925273ffffffffffffffffffffffffffffffffffffffff169063f242432a9060c401600060405180830381600087803b158015612d5757600080fd5b505af1158015612d6b573d6000803e3d6000fd5b5050604080518082018252601881527f757365722062616c616e6365206f6620435658204e46543a000000000000000060208083019190915260078054336000818152600385528690209092015485517efdd58e000000000000000000000000000000000000000000000000000000008152600481019390935260248301529351612ca0965092945073ffffffffffffffffffffffffffffffffffffffff9093169262fdd58e92604480830193928290030181865afa158015612e32573d6000803e3d6000fd5b505050506040513d601f19601f82011682018060405250810190612e5691906137e0565b6131aa565b612ca06040518060400160405280601281526020017f696e7374616e742077697468647261773a2000000000000000000000000000008152508261323b565b600073c02aaa39b223fe8d0a0e5c4f27ead9083c756cc273ffffffffffffffffffffffffffffffffffffffff1663d0e30db0836040518263ffffffff1660e01b81526004016000604051808303818588803b158015612ef857600080fd5b505af1158015612f0c573d6000803e3d6000fd5b5050505050600061173273c02aaa39b223fe8d0a0e5c4f27ead9083c756cc2734e3fbd56cd56c3e72c1403e103b45db9da5b9d2b61271086612224565b60008060008390506000600960008154612f6290613946565b91829055506007546040517fe7d3fe6b000000000000000000000000000000000000000000000000000000008152600481018390526024810185905230604482015291925073ffffffffffffffffffffffffffffffffffffffff169063e7d3fe6b90606401600060405180830381600087803b158015612fe157600080fd5b505af1158015612ff5573d6000803e3d6000fd5b5050505073ffffffffffffffffffffffffffffffffffffffff86811660009081526003602052604080822060079081018590555490517efdd58e000000000000000000000000000000000000000000000000000000008152306004820152602481018590529192169062fdd58e90604401602060405180830381865afa158015613083573d6000803e3d6000fd5b505050506040513d601f19601f820116820180604052508101906130a791906137e0565b9791965090945050505050565b60005473ffffffffffffffffffffffffffffffffffffffff163314611b49576040517f08c379a000000000000000000000000000000000000000000000000000000000815260206004820181905260248201527f4f776e61626c653a2063616c6c6572206973206e6f7420746865206f776e65726044820152606401610b4f565b6000805473ffffffffffffffffffffffffffffffffffffffff8381167fffffffffffffffffffffffff0000000000000000000000000000000000000000831681178455604051919092169283917f8be0079c531659141344cd1fd0a4f28419497f9722a3daafe3b4186f6b6457e09190a35050565b61296082826040516024016131c0929190613b94565b604080517fffffffffffffffffffffffffffffffffffffffffffffffffffffffffffffffe08184030181529190526020810180517bffffffffffffffffffffffffffffffffffffffffffffffffffffffff167fb60e72cc000000000000000000000000000000000000000000000000000000001790526132c8565b6129608282604051602401613251929190613bb6565b604080517fffffffffffffffffffffffffffffffffffffffffffffffffffffffffffffffe08184030181529190526020810180517bffffffffffffffffffffffffffffffffffffffffffffffffffffffff167fc3b55635000000000000000000000000000000000000000000000000000000001790525b80516a636f6e736f6c652e6c6f67602083016000808483855afa5050505050565b60405180604001604052806002906020820280368337509192915050565b60006020828403121561331957600080fd5b5035919050565b60006020828403121561333257600080fd5b81357fffffffff000000000000000000000000000000000000000000000000000000008116811461173257600080fd5b73ffffffffffffffffffffffffffffffffffffffff81168114612ca057600080fd5b6000806040838503121561339757600080fd5b82356133a281613362565b946020939093013593505050565b8015158114612ca057600080fd5b6000602082840312156133d057600080fd5b8135611732816133b0565b6000815180845260005b81811015613401576020818501810151868301820152016133e5565b81811115613413576000602083870101525b50601f017fffffffffffffffffffffffffffffffffffffffffffffffffffffffffffffffe0169290920160200192915050565b60208152600061173260208301846133db565b60008060006060848603121561346e57600080fd5b833561347981613362565b95602085013595506040909401359392505050565b6000602082840312156134a057600080fd5b813561173281613362565b600080604083850312156134be57600080fd5b82356134c981613362565b915060208301356134d981613362565b809150509250929050565b600080600080608085870312156134fa57600080fd5b843561350581613362565b9350602085013561351581613362565b9250604085013562ffffff8116811461352d57600080fd5b9396929550929360600135925050565b7f4e487b7100000000000000000000000000000000000000000000000000000000600052604160045260246000fd5b604051601f82017fffffffffffffffffffffffffffffffffffffffffffffffffffffffffffffffe016810167ffffffffffffffff811182821017156135b3576135b361353d565b604052919050565b600082601f8301126135cc57600080fd5b8135602067ffffffffffffffff8211156135e8576135e861353d565b8160051b6135f782820161356c565b928352848101820192828101908785111561361157600080fd5b83870192505b8483101561363057823582529183019190830190613617565b979650505050505050565b600082601f83011261364c57600080fd5b813567ffffffffffffffff8111156136665761366661353d565b61369760207fffffffffffffffffffffffffffffffffffffffffffffffffffffffffffffffe0601f8401160161356c565b8181528460208386010111156136ac57600080fd5b816020850160208301376000918101602001919091529392505050565b600080600080600060a086880312156136e157600080fd5b85356136ec81613362565b945060208601356136fc81613362565b9350604086013567ffffffffffffffff8082111561371957600080fd5b61372589838a016135bb565b9450606088013591508082111561373b57600080fd5b61374789838a016135bb565b9350608088013591508082111561375d57600080fd5b5061376a8882890161363b565b9150509295509295909350565b600080600080600060a0868803121561378f57600080fd5b853561379a81613362565b945060208601356137aa81613362565b93506040860135925060608601359150608086013567ffffffffffffffff8111156137d457600080fd5b61376a8882890161363b565b6000602082840312156137f257600080fd5b5051919050565b60006020828403121561380b57600080fd5b8151611732816133b0565b8060005b600281101561383957815184526020938401939091019060010161381a565b50505050565b828152606081016117326020830184613816565b60006020828403121561386557600080fd5b815161173281613362565b7f4e487b7100000000000000000000000000000000000000000000000000000000600052601160045260246000fd5b600082198211156138b2576138b2613870565b500190565b6000828210156138c9576138c9613870565b500390565b6000817fffffffffffffffffffffffffffffffffffffffffffffffffffffffffffffffff048311821515161561390657613906613870565b500290565b600082613941577f4e487b7100000000000000000000000000000000000000000000000000000000600052601260045260246000fd5b500490565b60007fffffffffffffffffffffffffffffffffffffffffffffffffffffffffffffffff820361397757613977613870565b5060010190565b6080810161398c8286613816565b8360408301528215156060830152949350505050565b805169ffffffffffffffffffff811681146139bc57600080fd5b919050565b600080600080600060a086880312156139d957600080fd5b6139e2866139a2565b9450602086015193506040860151925060608601519150613a05608087016139a2565b90509295509295909350565b600060208284031215613a2357600080fd5b815160ff8116811461173257600080fd5b600060ff821660ff84168060ff03821115613a5157613a51613870565b019392505050565b600181815b80851115613ab257817fffffffffffffffffffffffffffffffffffffffffffffffffffffffffffffffff04821115613a9857613a98613870565b80851615613aa557918102915b93841c9390800290613a5e565b509250929050565b600082613ac957506001610a14565b81613ad657506000610a14565b8160018114613aec5760028114613af657613b12565b6001915050610a14565b60ff841115613b0757613b07613870565b50506001821b610a14565b5060208310610133831016604e8410600b8410161715613b35575081810a610a14565b613b3f8383613a59565b807fffffffffffffffffffffffffffffffffffffffffffffffffffffffffffffffff04821115613b7157613b71613870565b029392505050565b600061173260ff841683613aba565b60006117328383613aba565b604081526000613ba760408301856133db565b90508260208301529392505050565b604081526000613bc960408301856133db565b90508215156020830152939250505056fe457468206265666f7265207377617070696e6720737465746820746f206574683aa2646970667358221220fad441e74d1be99c7d6485c972c913e8e396f9e40e862ab893d2362361e9cdb764736f6c634300080d0033",
  "linkReferences": {},
  "deployedLinkReferences": {}
}