{
  "_format": "hh-sol-artifact-1",
  "contractName": "SafEthV2MockStorage",
  "sourceName": "contracts/mocks/SafEthV2MockStorage.sol",
  "abi": [
    {
      "inputs": [],
      "name": "newFunctionCalled",
      "outputs": [
        {
          "internalType": "bool",
          "name": "",
          "type": "bool"
        }
      ],
      "stateMutability": "view",
      "type": "function"
    }
  ],
  "bytecode": "0x6080604052348015600f57600080fd5b5060838061001e6000396000f3fe6080604052348015600f57600080fd5b506004361060285760003560e01c8063e1aa320f14602d575b600080fd5b60005460399060ff1681565b604051901515815260200160405180910390f3fea264697066735822122029dba25858914426d826eb1b70362ed3ffcfb1b1a7a71958fb5ef9751347809064736f6c634300080d0033",
  "linkReferences": {},
  "deployedLinkReferences": {}
}