{
  "_format": "hh-sol-artifact-1",
  "contractName": "SafEth",
  "sourceName": "contracts/SafEth/SafEth.sol",
  "abi": [
    {
      "inputs": [],
      "stateMutability": "nonpayable",
      "type": "constructor"
    },
    {
      "anonymous": false,
      "inputs": [
        {
          "indexed": true,
          "internalType": "address",
          "name": "owner",
          "type": "address"
        },
        {
          "indexed": true,
          "internalType": "address",
          "name": "spender",
          "type": "address"
        },
        {
          "indexed": false,
          "internalType": "uint256",
          "name": "value",
          "type": "uint256"
        }
      ],
      "name": "Approval",
      "type": "event"
    },
    {
      "anonymous": false,
      "inputs": [
        {
          "indexed": true,
          "internalType": "uint256",
          "name": "maxAmount",
          "type": "uint256"
        }
      ],
      "name": "ChangeMaxAmount",
      "type": "event"
    },
    {
      "anonymous": false,
      "inputs": [
        {
          "indexed": true,
          "internalType": "uint256",
          "name": "minAmount",
          "type": "uint256"
        }
      ],
      "name": "ChangeMinAmount",
      "type": "event"
    },
    {
      "anonymous": false,
      "inputs": [
        {
          "indexed": true,
          "internalType": "address",
          "name": "contractAddress",
          "type": "address"
        },
        {
          "indexed": false,
          "internalType": "uint256",
          "name": "weight",
          "type": "uint256"
        },
        {
          "indexed": false,
          "internalType": "uint256",
          "name": "index",
          "type": "uint256"
        }
      ],
      "name": "DerivativeAdded",
      "type": "event"
    },
    {
      "anonymous": false,
      "inputs": [
        {
          "indexed": false,
          "internalType": "uint8",
          "name": "version",
          "type": "uint8"
        }
      ],
      "name": "Initialized",
      "type": "event"
    },
    {
      "anonymous": false,
      "inputs": [
        {
          "indexed": true,
          "internalType": "address",
          "name": "previousOwner",
          "type": "address"
        },
        {
          "indexed": true,
          "internalType": "address",
          "name": "newOwner",
          "type": "address"
        }
      ],
      "name": "OwnershipTransferred",
      "type": "event"
    },
    {
      "anonymous": false,
      "inputs": [],
      "name": "Rebalanced",
      "type": "event"
    },
    {
      "anonymous": false,
      "inputs": [
        {
          "indexed": true,
          "internalType": "uint256",
          "name": "index",
          "type": "uint256"
        },
        {
          "indexed": false,
          "internalType": "uint256",
          "name": "slippage",
          "type": "uint256"
        }
      ],
      "name": "SetMaxSlippage",
      "type": "event"
    },
    {
      "anonymous": false,
      "inputs": [
        {
          "indexed": true,
          "internalType": "address",
          "name": "recipient",
          "type": "address"
        },
        {
          "indexed": false,
          "internalType": "uint256",
          "name": "ethIn",
          "type": "uint256"
        },
        {
          "indexed": false,
          "internalType": "uint256",
          "name": "safEthOut",
          "type": "uint256"
        }
      ],
      "name": "Staked",
      "type": "event"
    },
    {
      "anonymous": false,
      "inputs": [
        {
          "indexed": true,
          "internalType": "bool",
          "name": "paused",
          "type": "bool"
        }
      ],
      "name": "StakingPaused",
      "type": "event"
    },
    {
      "anonymous": false,
      "inputs": [
        {
          "indexed": true,
          "internalType": "address",
          "name": "from",
          "type": "address"
        },
        {
          "indexed": true,
          "internalType": "address",
          "name": "to",
          "type": "address"
        },
        {
          "indexed": false,
          "internalType": "uint256",
          "name": "value",
          "type": "uint256"
        }
      ],
      "name": "Transfer",
      "type": "event"
    },
    {
      "anonymous": false,
      "inputs": [
        {
          "indexed": true,
          "internalType": "address",
          "name": "recipient",
          "type": "address"
        },
        {
          "indexed": false,
          "internalType": "uint256",
          "name": "ethOut",
          "type": "uint256"
        },
        {
          "indexed": false,
          "internalType": "uint256",
          "name": "safEthIn",
          "type": "uint256"
        }
      ],
      "name": "Unstaked",
      "type": "event"
    },
    {
      "anonymous": false,
      "inputs": [
        {
          "indexed": true,
          "internalType": "bool",
          "name": "paused",
          "type": "bool"
        }
      ],
      "name": "UnstakingPaused",
      "type": "event"
    },
    {
      "anonymous": false,
      "inputs": [
        {
          "indexed": true,
          "internalType": "uint256",
          "name": "index",
          "type": "uint256"
        },
        {
          "indexed": false,
          "internalType": "uint256",
          "name": "weight",
          "type": "uint256"
        }
      ],
      "name": "WeightChange",
      "type": "event"
    },
    {
      "inputs": [
        {
          "internalType": "address",
          "name": "_contractAddress",
          "type": "address"
        },
        {
          "internalType": "uint256",
          "name": "_weight",
          "type": "uint256"
        }
      ],
      "name": "addDerivative",
      "outputs": [],
      "stateMutability": "nonpayable",
      "type": "function"
    },
    {
      "inputs": [
        {
          "internalType": "uint256",
          "name": "_derivativeIndex",
          "type": "uint256"
        },
        {
          "internalType": "uint256",
          "name": "_weight",
          "type": "uint256"
        }
      ],
      "name": "adjustWeight",
      "outputs": [],
      "stateMutability": "nonpayable",
      "type": "function"
    },
    {
      "inputs": [
        {
          "internalType": "address",
          "name": "owner",
          "type": "address"
        },
        {
          "internalType": "address",
          "name": "spender",
          "type": "address"
        }
      ],
      "name": "allowance",
      "outputs": [
        {
          "internalType": "uint256",
          "name": "",
          "type": "uint256"
        }
      ],
      "stateMutability": "view",
      "type": "function"
    },
    {
      "inputs": [
        {
          "internalType": "address",
          "name": "spender",
          "type": "address"
        },
        {
          "internalType": "uint256",
          "name": "amount",
          "type": "uint256"
        }
      ],
      "name": "approve",
      "outputs": [
        {
          "internalType": "bool",
          "name": "",
          "type": "bool"
        }
      ],
      "stateMutability": "nonpayable",
      "type": "function"
    },
    {
      "inputs": [
        {
          "internalType": "address",
          "name": "account",
          "type": "address"
        }
      ],
      "name": "balanceOf",
      "outputs": [
        {
          "internalType": "uint256",
          "name": "",
          "type": "uint256"
        }
      ],
      "stateMutability": "view",
      "type": "function"
    },
    {
      "inputs": [],
      "name": "decimals",
      "outputs": [
        {
          "internalType": "uint8",
          "name": "",
          "type": "uint8"
        }
      ],
      "stateMutability": "view",
      "type": "function"
    },
    {
      "inputs": [
        {
          "internalType": "address",
          "name": "spender",
          "type": "address"
        },
        {
          "internalType": "uint256",
          "name": "subtractedValue",
          "type": "uint256"
        }
      ],
      "name": "decreaseAllowance",
      "outputs": [
        {
          "internalType": "bool",
          "name": "",
          "type": "bool"
        }
      ],
      "stateMutability": "nonpayable",
      "type": "function"
    },
    {
      "inputs": [],
      "name": "derivativeCount",
      "outputs": [
        {
          "internalType": "uint256",
          "name": "",
          "type": "uint256"
        }
      ],
      "stateMutability": "view",
      "type": "function"
    },
    {
      "inputs": [
        {
          "internalType": "uint256",
          "name": "",
          "type": "uint256"
        }
      ],
      "name": "derivatives",
      "outputs": [
        {
          "internalType": "contract IDerivative",
          "name": "",
          "type": "address"
        }
      ],
      "stateMutability": "view",
      "type": "function"
    },
    {
      "inputs": [
        {
          "internalType": "address",
          "name": "spender",
          "type": "address"
        },
        {
          "internalType": "uint256",
          "name": "addedValue",
          "type": "uint256"
        }
      ],
      "name": "increaseAllowance",
      "outputs": [
        {
          "internalType": "bool",
          "name": "",
          "type": "bool"
        }
      ],
      "stateMutability": "nonpayable",
      "type": "function"
    },
    {
      "inputs": [
        {
          "internalType": "string",
          "name": "_tokenName",
          "type": "string"
        },
        {
          "internalType": "string",
          "name": "_tokenSymbol",
          "type": "string"
        }
      ],
      "name": "initialize",
      "outputs": [],
      "stateMutability": "nonpayable",
      "type": "function"
    },
    {
      "inputs": [],
      "name": "maxAmount",
      "outputs": [
        {
          "internalType": "uint256",
          "name": "",
          "type": "uint256"
        }
      ],
      "stateMutability": "view",
      "type": "function"
    },
    {
      "inputs": [],
      "name": "minAmount",
      "outputs": [
        {
          "internalType": "uint256",
          "name": "",
          "type": "uint256"
        }
      ],
      "stateMutability": "view",
      "type": "function"
    },
    {
      "inputs": [],
      "name": "name",
      "outputs": [
        {
          "internalType": "string",
          "name": "",
          "type": "string"
        }
      ],
      "stateMutability": "view",
      "type": "function"
    },
    {
      "inputs": [],
      "name": "owner",
      "outputs": [
        {
          "internalType": "address",
          "name": "",
          "type": "address"
        }
      ],
      "stateMutability": "view",
      "type": "function"
    },
    {
      "inputs": [],
      "name": "pauseStaking",
      "outputs": [
        {
          "internalType": "bool",
          "name": "",
          "type": "bool"
        }
      ],
      "stateMutability": "view",
      "type": "function"
    },
    {
      "inputs": [],
      "name": "pauseUnstaking",
      "outputs": [
        {
          "internalType": "bool",
          "name": "",
          "type": "bool"
        }
      ],
      "stateMutability": "view",
      "type": "function"
    },
    {
      "inputs": [],
      "name": "rebalanceToWeights",
      "outputs": [],
      "stateMutability": "nonpayable",
      "type": "function"
    },
    {
      "inputs": [],
      "name": "renounceOwnership",
      "outputs": [],
      "stateMutability": "nonpayable",
      "type": "function"
    },
    {
      "inputs": [
        {
          "internalType": "uint256",
          "name": "_maxAmount",
          "type": "uint256"
        }
      ],
      "name": "setMaxAmount",
      "outputs": [],
      "stateMutability": "nonpayable",
      "type": "function"
    },
    {
      "inputs": [
        {
          "internalType": "uint256",
          "name": "_derivativeIndex",
          "type": "uint256"
        },
        {
          "internalType": "uint256",
          "name": "_slippage",
          "type": "uint256"
        }
      ],
      "name": "setMaxSlippage",
      "outputs": [],
      "stateMutability": "nonpayable",
      "type": "function"
    },
    {
      "inputs": [
        {
          "internalType": "uint256",
          "name": "_minAmount",
          "type": "uint256"
        }
      ],
      "name": "setMinAmount",
      "outputs": [],
      "stateMutability": "nonpayable",
      "type": "function"
    },
    {
      "inputs": [
        {
          "internalType": "bool",
          "name": "_pause",
          "type": "bool"
        }
      ],
      "name": "setPauseStaking",
      "outputs": [],
      "stateMutability": "nonpayable",
      "type": "function"
    },
    {
      "inputs": [
        {
          "internalType": "bool",
          "name": "_pause",
          "type": "bool"
        }
      ],
      "name": "setPauseUnstaking",
      "outputs": [],
      "stateMutability": "nonpayable",
      "type": "function"
    },
    {
      "inputs": [],
      "name": "stake",
      "outputs": [],
      "stateMutability": "payable",
      "type": "function"
    },
    {
      "inputs": [],
      "name": "symbol",
      "outputs": [
        {
          "internalType": "string",
          "name": "",
          "type": "string"
        }
      ],
      "stateMutability": "view",
      "type": "function"
    },
    {
      "inputs": [],
      "name": "totalSupply",
      "outputs": [
        {
          "internalType": "uint256",
          "name": "",
          "type": "uint256"
        }
      ],
      "stateMutability": "view",
      "type": "function"
    },
    {
      "inputs": [],
      "name": "totalWeight",
      "outputs": [
        {
          "internalType": "uint256",
          "name": "",
          "type": "uint256"
        }
      ],
      "stateMutability": "view",
      "type": "function"
    },
    {
      "inputs": [
        {
          "internalType": "address",
          "name": "to",
          "type": "address"
        },
        {
          "internalType": "uint256",
          "name": "amount",
          "type": "uint256"
        }
      ],
      "name": "transfer",
      "outputs": [
        {
          "internalType": "bool",
          "name": "",
          "type": "bool"
        }
      ],
      "stateMutability": "nonpayable",
      "type": "function"
    },
    {
      "inputs": [
        {
          "internalType": "address",
          "name": "from",
          "type": "address"
        },
        {
          "internalType": "address",
          "name": "to",
          "type": "address"
        },
        {
          "internalType": "uint256",
          "name": "amount",
          "type": "uint256"
        }
      ],
      "name": "transferFrom",
      "outputs": [
        {
          "internalType": "bool",
          "name": "",
          "type": "bool"
        }
      ],
      "stateMutability": "nonpayable",
      "type": "function"
    },
    {
      "inputs": [
        {
          "internalType": "address",
          "name": "newOwner",
          "type": "address"
        }
      ],
      "name": "transferOwnership",
      "outputs": [],
      "stateMutability": "nonpayable",
      "type": "function"
    },
    {
      "inputs": [
        {
          "internalType": "uint256",
          "name": "_safEthAmount",
          "type": "uint256"
        }
      ],
      "name": "unstake",
      "outputs": [],
      "stateMutability": "nonpayable",
      "type": "function"
    },
    {
      "inputs": [
        {
          "internalType": "uint256",
          "name": "",
          "type": "uint256"
        }
      ],
      "name": "weights",
      "outputs": [
        {
          "internalType": "uint256",
          "name": "",
          "type": "uint256"
        }
      ],
      "stateMutability": "view",
      "type": "function"
    },
    {
      "stateMutability": "payable",
      "type": "receive"
    }
  ],
  "bytecode": "0x60806040523480156200001157600080fd5b506200001c62000022565b620000e4565b600054610100900460ff16156200008f5760405162461bcd60e51b815260206004820152602760248201527f496e697469616c697a61626c653a20636f6e747261637420697320696e697469604482015266616c697a696e6760c81b606482015260840160405180910390fd5b60005460ff9081161015620000e2576000805460ff191660ff9081179091556040519081527f7f26b83ff96e1f2b6a682f133852f6798a09c465da95921460cefb38474024989060200160405180910390a15b565b6129de80620000f46000396000f3fe6080604052600436106102025760003560e01c8063897b06371161011d578063b5f163ff116100b0578063d416c0961161007f578063dd62ed3e11610064578063dd62ed3e14610603578063f2fde38b14610656578063f999c5061461067657600080fd5b8063d416c096146105ce578063d5b7f606146105e357600080fd5b8063b5f163ff14610528578063b9c849b614610555578063c0046e3914610575578063cde8f851146105b857600080fd5b80639b2cb5d8116100ec5780639b2cb5d8146104b2578063a457c2d7146104c8578063a57e3b10146104e8578063a9059cbb1461050857600080fd5b8063897b06371461041b5780638da5cb5b1461043b57806395d89b411461048757806396c82e571461049c57600080fd5b80633a4b66f1116101955780635f48f393116101645780635f48f3931461038d5780636d49e0b6146103a357806370a08231146103c3578063715018a61461040657600080fd5b80633a4b66f1146103255780634cd88b761461032d5780634fe47f701461034d5780635e7cc5831461036d57600080fd5b806323b872dd116101d157806323b872dd146102a75780632e17de78146102c7578063313ce567146102e9578063395093511461030557600080fd5b806306fdde031461020e578063095ea7b31461023957806318160ddd146102695780631c4e6ab71461028857600080fd5b3661020957005b600080fd5b34801561021a57600080fd5b50610223610690565b604051610230919061253c565b60405180910390f35b34801561024557600080fd5b506102596102543660046125d8565b610722565b6040519015158152602001610230565b34801561027557600080fd5b506035545b604051908152602001610230565b34801561029457600080fd5b5060975461025990610100900460ff1681565b3480156102b357600080fd5b506102596102c2366004612602565b61073a565b3480156102d357600080fd5b506102e76102e236600461263e565b61075e565b005b3480156102f557600080fd5b5060405160128152602001610230565b34801561031157600080fd5b506102596103203660046125d8565b610a69565b6102e7610ab5565b34801561033957600080fd5b506102e7610348366004612731565b611040565b34801561035957600080fd5b506102e761036836600461263e565b6111ff565b34801561037957600080fd5b506102e7610388366004612795565b61123a565b34801561039957600080fd5b5061027a609b5481565b3480156103af57600080fd5b506102e76103be3660046127b7565b611311565b3480156103cf57600080fd5b5061027a6103de3660046127e0565b73ffffffffffffffffffffffffffffffffffffffff1660009081526033602052604090205490565b34801561041257600080fd5b506102e761137c565b34801561042757600080fd5b506102e761043636600461263e565b611390565b34801561044757600080fd5b5060655473ffffffffffffffffffffffffffffffffffffffff165b60405173ffffffffffffffffffffffffffffffffffffffff9091168152602001610230565b34801561049357600080fd5b506102236113cb565b3480156104a857600080fd5b5061027a60995481565b3480156104be57600080fd5b5061027a609a5481565b3480156104d457600080fd5b506102596104e33660046125d8565b6113da565b3480156104f457600080fd5b506102e76105033660046125d8565b6114ab565b34801561051457600080fd5b506102596105233660046125d8565b6115c6565b34801561053457600080fd5b5061027a61054336600461263e565b609d6020526000908152604090205481565b34801561056157600080fd5b506102e7610570366004612795565b6115d4565b34801561058157600080fd5b5061046261059036600461263e565b609c6020526000908152604090205473ffffffffffffffffffffffffffffffffffffffff1681565b3480156105c457600080fd5b5061027a60985481565b3480156105da57600080fd5b506102e761165e565b3480156105ef57600080fd5b506102e76105fe3660046127b7565b611969565b34801561060f57600080fd5b5061027a61061e3660046127fb565b73ffffffffffffffffffffffffffffffffffffffff918216600090815260346020908152604080832093909416825291909152205490565b34801561066257600080fd5b506102e76106713660046127e0565b6119dd565b34801561068257600080fd5b506097546102599060ff1681565b60606036805461069f9061282e565b80601f01602080910402602001604051908101604052809291908181526020018280546106cb9061282e565b80156107185780601f106106ed57610100808354040283529160200191610718565b820191906000526020600020905b8154815290600101906020018083116106fb57829003601f168201915b5050505050905090565b600033610730818585611a94565b5060019392505050565b600033610748858285611c47565b610753858585611d1e565b506001949350505050565b609754610100900460ff16156107d5576040517f08c379a000000000000000000000000000000000000000000000000000000000815260206004820152601360248201527f756e7374616b696e67206973207061757365640000000000000000000000000060448201526064015b60405180910390fd5b60006107e060355490565b90504760005b609854811015610959576000818152609c602090815260408083205481517fb69ef8a800000000000000000000000000000000000000000000000000000000815291518793899373ffffffffffffffffffffffffffffffffffffffff9093169263b69ef8a892600480830193928290030181865afa15801561086c573d6000803e3d6000fd5b505050506040513d601f19601f820116820180604052508101906108909190612881565b61089a91906128c9565b6108a49190612906565b9050806000036108b45750610947565b6000828152609c6020526040908190205490517f2e1a7d4d0000000000000000000000000000000000000000000000000000000081526004810183905273ffffffffffffffffffffffffffffffffffffffff90911690632e1a7d4d90602401600060405180830381600087803b15801561092d57600080fd5b505af1158015610941573d6000803e3d6000fd5b50505050505b8061095181612941565b9150506107e6565b506109643384611f94565b4760006109718383612979565b604051909150600090339083908381818185875af1925050503d80600081146109b6576040519150601f19603f3d011682016040523d82523d6000602084013e6109bb565b606091505b5050905080610a26576040517f08c379a000000000000000000000000000000000000000000000000000000000815260206004820152601460248201527f4661696c656420746f2073656e6420457468657200000000000000000000000060448201526064016107cc565b604080518381526020810188905233917f7fc4727e062e336010f2c282598ef5f14facb3de68cf8195c2f23e1454b2b74e910160405180910390a2505050505050565b33600081815260346020908152604080832073ffffffffffffffffffffffffffffffffffffffff871684529091528120549091906107309082908690610ab0908790612990565b611a94565b60975460ff1615610b22576040517f08c379a000000000000000000000000000000000000000000000000000000000815260206004820152601160248201527f7374616b696e672069732070617573656400000000000000000000000000000060448201526064016107cc565b609a54341015610b8e576040517f08c379a000000000000000000000000000000000000000000000000000000000815260206004820152600e60248201527f616d6f756e7420746f6f206c6f7700000000000000000000000000000000000060448201526064016107cc565b609b54341115610bfa576040517f08c379a000000000000000000000000000000000000000000000000000000000815260206004820152600f60248201527f616d6f756e7420746f6f2068696768000000000000000000000000000000000060448201526064016107cc565b6000805b609854811015610de6576000818152609c60209081526040918290205482517fb69ef8a80000000000000000000000000000000000000000000000000000000081529251670de0b6b3a76400009373ffffffffffffffffffffffffffffffffffffffff9092169263b69ef8a892600480820193918290030181865afa158015610c8b573d6000803e3d6000fd5b505050506040513d601f19601f82011682018060405250810190610caf9190612881565b6000838152609c60209081526040918290205482517fb69ef8a8000000000000000000000000000000000000000000000000000000008152925173ffffffffffffffffffffffffffffffffffffffff90911692632bd6de1d92849263b69ef8a89260048082019392918290030181865afa158015610d31573d6000803e3d6000fd5b505050506040513d601f19601f82011682018060405250810190610d559190612881565b6040518263ffffffff1660e01b8152600401610d7391815260200190565b602060405180830381865afa158015610d90573d6000803e3d6000fd5b505050506040513d601f19601f82011682018060405250810190610db49190612881565b610dbe91906128c9565b610dc89190612906565b610dd29083612990565b915080610dde81612941565b915050610bfe565b506000610df260355490565b9050600081600003610e0d5750670de0b6b3a7640000610e2d565b81610e2084670de0b6b3a76400006128c9565b610e2a9190612906565b90505b6000805b609854811015610fd2576000818152609d6020908152604080832054609c909252822054909173ffffffffffffffffffffffffffffffffffffffff90911690829003610e7e575050610fc0565b609954600090610e8e84346128c9565b610e989190612906565b905060008273ffffffffffffffffffffffffffffffffffffffff1663d0e30db0836040518263ffffffff1660e01b815260040160206040518083038185885af1158015610ee9573d6000803e3d6000fd5b50505050506040513d601f19601f82011682018060405250810190610f0e9190612881565b90506000670de0b6b3a7640000828573ffffffffffffffffffffffffffffffffffffffff16632bd6de1d856040518263ffffffff1660e01b8152600401610f5791815260200190565b602060405180830381865afa158015610f74573d6000803e3d6000fd5b505050506040513d601f19601f82011682018060405250810190610f989190612881565b610fa291906128c9565b610fac9190612906565b9050610fb88188612990565b965050505050505b80610fca81612941565b915050610e31565b50600082610fe883670de0b6b3a76400006128c9565b610ff29190612906565b9050610ffe338261215a565b604080513481526020810183905233917f1449c6dd7851abc30abf37f57715f492010519147cc2652fbc38202c18a6ee90910160405180910390a25050505050565b600054610100900460ff16158080156110605750600054600160ff909116105b8061107a5750303b15801561107a575060005460ff166001145b611106576040517f08c379a000000000000000000000000000000000000000000000000000000000815260206004820152602e60248201527f496e697469616c697a61626c653a20636f6e747261637420697320616c72656160448201527f647920696e697469616c697a656400000000000000000000000000000000000060648201526084016107cc565b600080547fffffffffffffffffffffffffffffffffffffffffffffffffffffffffffffff00166001179055801561116457600080547fffffffffffffffffffffffffffffffffffffffffffffffffffffffffffff00ff166101001790555b61116e8383612250565b611177336122f1565b6503782dace9d9609a557103025f39ef241c56cd2e7c40000000000000609b5580156111fa57600080547fffffffffffffffffffffffffffffffffffffffffffffffffffffffffffff00ff169055604051600181527f7f26b83ff96e1f2b6a682f133852f6798a09c465da95921460cefb38474024989060200160405180910390a15b505050565b611207612368565b609b81905560405181907f13cad1d1f9bc3464ddf35ddde5e0389a9edf9639f97e2fccb7e59fdeb5dcad2290600090a250565b611242612368565b6000828152609c6020526040908190205490517f43f68a490000000000000000000000000000000000000000000000000000000081526004810183905273ffffffffffffffffffffffffffffffffffffffff909116906343f68a4990602401600060405180830381600087803b1580156112bb57600080fd5b505af11580156112cf573d6000803e3d6000fd5b50505050817f69bd9725c402dd1e5e9d8a2323132cb3943d9dc10cb4747a89e05cda452bfe9f8260405161130591815260200190565b60405180910390a25050565b611319612368565b609780547fffffffffffffffffffffffffffffffffffffffffffffffffffffffffffffff001682151590811790915560405160ff9091161515907f3cf4fe733160f8f8c48336fab32acee32ebaaa423a08a2be4e5ceff97dd98c6990600090a250565b611384612368565b61138e60006122f1565b565b611398612368565b609a81905560405181907fbb1711a6693c8a2dfb14b13f0a1468cb1042b91bfe4e3a4b3e3d280aa255ece290600090a250565b60606037805461069f9061282e565b33600081815260346020908152604080832073ffffffffffffffffffffffffffffffffffffffff871684529091528120549091908381101561149e576040517f08c379a000000000000000000000000000000000000000000000000000000000815260206004820152602560248201527f45524332303a2064656372656173656420616c6c6f77616e63652062656c6f7760448201527f207a65726f00000000000000000000000000000000000000000000000000000060648201526084016107cc565b6107538286868403611a94565b6114b3612368565b609880546000908152609c6020908152604080832080547fffffffffffffffffffffffff00000000000000000000000000000000000000001673ffffffffffffffffffffffffffffffffffffffff881617905583548352609d90915281208390558154919061152183612941565b91905055506000805b609854811015611561576000818152609d602052604090205461154d9083612990565b91508061155981612941565b91505061152a565b50609981905560985460405173ffffffffffffffffffffffffffffffffffffffff8516917f7801a492c794d930101c8993235226b79be1216f9855e30c0615d22fdd22bb44916115b991868252602082015260400190565b60405180910390a2505050565b600033610730818585611d1e565b6115dc612368565b6000828152609d60205260408120829055805b609854811015611626576000818152609d60205260409020546116129083612990565b91508061161e81612941565b9150506115ef565b50609981905560405182815283907faf36c6f4d67b41fb74b801bfd0a1f6e579c68ff0cc464663a49f3c6112d9b93d906020016115b9565b611666612368565b4760005b60985481101561181f576000818152609c602090815260408083205481517fb69ef8a8000000000000000000000000000000000000000000000000000000008152915173ffffffffffffffffffffffffffffffffffffffff9091169263b69ef8a892600480820193918290030181865afa1580156116ec573d6000803e3d6000fd5b505050506040513d601f19601f820116820180604052508101906117109190612881565b111561180d576000818152609c60209081526040918290205482517fb69ef8a8000000000000000000000000000000000000000000000000000000008152925173ffffffffffffffffffffffffffffffffffffffff90911692632e1a7d4d92849263b69ef8a89260048082019392918290030181865afa158015611798573d6000803e3d6000fd5b505050506040513d601f19601f820116820180604052508101906117bc9190612881565b6040518263ffffffff1660e01b81526004016117da91815260200190565b600060405180830381600087803b1580156117f457600080fd5b505af1158015611808573d6000803e3d6000fd5b505050505b8061181781612941565b91505061166a565b5047600061182d8383612979565b905060005b60985481101561193a576000818152609d60205260409020541580611855575081155b611928576099546000828152609d602052604081205490919061187890856128c9565b6118829190612906565b6000838152609c60209081526040918290205482517fd0e30db0000000000000000000000000000000000000000000000000000000008152925193945073ffffffffffffffffffffffffffffffffffffffff169263d0e30db09285926004808301939192829003018185885af1158015611900573d6000803e3d6000fd5b50505050506040513d601f19601f820116820180604052508101906119259190612881565b50505b8061193281612941565b915050611832565b506040517fc741dbaad15a4f298fe8d80943fa8e005e7bcb2f5b0a0c8dec1fc35be457f14690600090a1505050565b611971612368565b609780547fffffffffffffffffffffffffffffffffffffffffffffffffffffffffffff00ff166101008315158102919091179182905560405160ff91909204161515907f0c7f3357f9df485f4d8a04f45e87783b560f907fc7d2f72b4377ca33aa49308e90600090a250565b6119e5612368565b73ffffffffffffffffffffffffffffffffffffffff8116611a88576040517f08c379a000000000000000000000000000000000000000000000000000000000815260206004820152602660248201527f4f776e61626c653a206e6577206f776e657220697320746865207a65726f206160448201527f646472657373000000000000000000000000000000000000000000000000000060648201526084016107cc565b611a91816122f1565b50565b73ffffffffffffffffffffffffffffffffffffffff8316611b36576040517f08c379a0000000000000000000000000000000000000000000000000000000008152602060048201526024808201527f45524332303a20617070726f76652066726f6d20746865207a65726f2061646460448201527f726573730000000000000000000000000000000000000000000000000000000060648201526084016107cc565b73ffffffffffffffffffffffffffffffffffffffff8216611bd9576040517f08c379a000000000000000000000000000000000000000000000000000000000815260206004820152602260248201527f45524332303a20617070726f766520746f20746865207a65726f20616464726560448201527f737300000000000000000000000000000000000000000000000000000000000060648201526084016107cc565b73ffffffffffffffffffffffffffffffffffffffff83811660008181526034602090815260408083209487168084529482529182902085905590518481527f8c5be1e5ebec7d5bd14f71427d1e84f3dd0314c0f7b2291e5b200ac8c7c3b925910160405180910390a3505050565b73ffffffffffffffffffffffffffffffffffffffff8381166000908152603460209081526040808320938616835292905220547fffffffffffffffffffffffffffffffffffffffffffffffffffffffffffffffff8114611d185781811015611d0b576040517f08c379a000000000000000000000000000000000000000000000000000000000815260206004820152601d60248201527f45524332303a20696e73756666696369656e7420616c6c6f77616e636500000060448201526064016107cc565b611d188484848403611a94565b50505050565b73ffffffffffffffffffffffffffffffffffffffff8316611dc1576040517f08c379a000000000000000000000000000000000000000000000000000000000815260206004820152602560248201527f45524332303a207472616e736665722066726f6d20746865207a65726f20616460448201527f647265737300000000000000000000000000000000000000000000000000000060648201526084016107cc565b73ffffffffffffffffffffffffffffffffffffffff8216611e64576040517f08c379a000000000000000000000000000000000000000000000000000000000815260206004820152602360248201527f45524332303a207472616e7366657220746f20746865207a65726f206164647260448201527f657373000000000000000000000000000000000000000000000000000000000060648201526084016107cc565b73ffffffffffffffffffffffffffffffffffffffff831660009081526033602052604090205481811015611f1a576040517f08c379a000000000000000000000000000000000000000000000000000000000815260206004820152602660248201527f45524332303a207472616e7366657220616d6f756e742065786365656473206260448201527f616c616e6365000000000000000000000000000000000000000000000000000060648201526084016107cc565b73ffffffffffffffffffffffffffffffffffffffff80851660008181526033602052604080822086860390559286168082529083902080548601905591517fddf252ad1be2c89b69c2b068fc378daa952ba7f163c4a11628f55a4df523b3ef90611f879086815260200190565b60405180910390a3611d18565b73ffffffffffffffffffffffffffffffffffffffff8216612037576040517f08c379a000000000000000000000000000000000000000000000000000000000815260206004820152602160248201527f45524332303a206275726e2066726f6d20746865207a65726f2061646472657360448201527f730000000000000000000000000000000000000000000000000000000000000060648201526084016107cc565b73ffffffffffffffffffffffffffffffffffffffff8216600090815260336020526040902054818110156120ed576040517f08c379a000000000000000000000000000000000000000000000000000000000815260206004820152602260248201527f45524332303a206275726e20616d6f756e7420657863656564732062616c616e60448201527f636500000000000000000000000000000000000000000000000000000000000060648201526084016107cc565b73ffffffffffffffffffffffffffffffffffffffff831660008181526033602090815260408083208686039055603580548790039055518581529192917fddf252ad1be2c89b69c2b068fc378daa952ba7f163c4a11628f55a4df523b3ef910160405180910390a3505050565b73ffffffffffffffffffffffffffffffffffffffff82166121d7576040517f08c379a000000000000000000000000000000000000000000000000000000000815260206004820152601f60248201527f45524332303a206d696e7420746f20746865207a65726f20616464726573730060448201526064016107cc565b80603560008282546121e99190612990565b909155505073ffffffffffffffffffffffffffffffffffffffff82166000818152603360209081526040808320805486019055518481527fddf252ad1be2c89b69c2b068fc378daa952ba7f163c4a11628f55a4df523b3ef910160405180910390a35b5050565b600054610100900460ff166122e7576040517f08c379a000000000000000000000000000000000000000000000000000000000815260206004820152602b60248201527f496e697469616c697a61626c653a20636f6e7472616374206973206e6f74206960448201527f6e697469616c697a696e6700000000000000000000000000000000000000000060648201526084016107cc565b61224c82826123e9565b6065805473ffffffffffffffffffffffffffffffffffffffff8381167fffffffffffffffffffffffff0000000000000000000000000000000000000000831681179093556040519116919082907f8be0079c531659141344cd1fd0a4f28419497f9722a3daafe3b4186f6b6457e090600090a35050565b60655473ffffffffffffffffffffffffffffffffffffffff16331461138e576040517f08c379a000000000000000000000000000000000000000000000000000000000815260206004820181905260248201527f4f776e61626c653a2063616c6c6572206973206e6f7420746865206f776e657260448201526064016107cc565b600054610100900460ff16612480576040517f08c379a000000000000000000000000000000000000000000000000000000000815260206004820152602b60248201527f496e697469616c697a61626c653a20636f6e7472616374206973206e6f74206960448201527f6e697469616c697a696e6700000000000000000000000000000000000000000060648201526084016107cc565b81516124939060369060208501906124a3565b5080516111fa9060379060208401905b8280546124af9061282e565b90600052602060002090601f0160209004810192826124d15760008555612517565b82601f106124ea57805160ff1916838001178555612517565b82800160010185558215612517579182015b828111156125175782518255916020019190600101906124fc565b50612523929150612527565b5090565b5b808211156125235760008155600101612528565b600060208083528351808285015260005b818110156125695785810183015185820160400152820161254d565b8181111561257b576000604083870101525b50601f017fffffffffffffffffffffffffffffffffffffffffffffffffffffffffffffffe016929092016040019392505050565b803573ffffffffffffffffffffffffffffffffffffffff811681146125d357600080fd5b919050565b600080604083850312156125eb57600080fd5b6125f4836125af565b946020939093013593505050565b60008060006060848603121561261757600080fd5b612620846125af565b925061262e602085016125af565b9150604084013590509250925092565b60006020828403121561265057600080fd5b5035919050565b7f4e487b7100000000000000000000000000000000000000000000000000000000600052604160045260246000fd5b600082601f83011261269757600080fd5b813567ffffffffffffffff808211156126b2576126b2612657565b604051601f83017fffffffffffffffffffffffffffffffffffffffffffffffffffffffffffffffe0908116603f011681019082821181831017156126f8576126f8612657565b8160405283815286602085880101111561271157600080fd5b836020870160208301376000602085830101528094505050505092915050565b6000806040838503121561274457600080fd5b823567ffffffffffffffff8082111561275c57600080fd5b61276886838701612686565b9350602085013591508082111561277e57600080fd5b5061278b85828601612686565b9150509250929050565b600080604083850312156127a857600080fd5b50508035926020909101359150565b6000602082840312156127c957600080fd5b813580151581146127d957600080fd5b9392505050565b6000602082840312156127f257600080fd5b6127d9826125af565b6000806040838503121561280e57600080fd5b612817836125af565b9150612825602084016125af565b90509250929050565b600181811c9082168061284257607f821691505b60208210810361287b577f4e487b7100000000000000000000000000000000000000000000000000000000600052602260045260246000fd5b50919050565b60006020828403121561289357600080fd5b5051919050565b7f4e487b7100000000000000000000000000000000000000000000000000000000600052601160045260246000fd5b6000817fffffffffffffffffffffffffffffffffffffffffffffffffffffffffffffffff04831182151516156129015761290161289a565b500290565b60008261293c577f4e487b7100000000000000000000000000000000000000000000000000000000600052601260045260246000fd5b500490565b60007fffffffffffffffffffffffffffffffffffffffffffffffffffffffffffffffff82036129725761297261289a565b5060010190565b60008282101561298b5761298b61289a565b500390565b600082198211156129a3576129a361289a565b50019056fea2646970667358221220479744678e20866a9d51b05d1636c1dbfc8f9635c2bfae355697ae470388e8c664736f6c634300080d0033",
  "linkReferences": {},
  "deployedLinkReferences": {}
}